:020000040800F2
:10000000C82E00209D1A00088510000887100008DF
:10001000991000089D100008A110000800000000C1
:10002000000000000000000000000000A510000813
:10003000A71000080000000093400008F7420008E5
:10004000B71A0008B71A0008B71A0008B71A00084C
:10005000B71A0008B71A0008B71A0008B71A00083C
:10006000B71A0008B71A0008B71A0008B71A00082C
:10007000B71A0008B71A0008B71A0008B71A00081C
:10008000B71A0008B71A0008B71A0008B71A00080C
:10009000B71A0008B71A0008B71A0008B71A0008FC
:1000A000B71A0008B71A0008B71A0008B71A0008EC
:1000B000B71A000817050008B71A0008B71A000891
:1000C000B71A0008B71A0008B71A0008B71A0008CC
:1000D000B71A0008B71A0008B71A0008B71A0008BC
:1000E000B71A0008B71A0008B71A0008B71A0008AC
:1000F000B71A0008B71A0008B71A0008B71A00089C
:10010000B71A0008B71A0008B71A0008B71A00088B
:10011000B71A0008B71A0008B71A0008B71A00087B
:10012000B71A0008B71A0008B71A0008B71A00086B
:10013000B71A0008B71A0008B71A0008B71A00085B
:10014000B71A0008B71A0008B71A0008B71A00084B
:10015000B71A0008B71A0008B71A0008B71A00083B
:10016000B71A0008B71A0008B71A0008B71A00082B
:10017000B71A0008B71A0008B71A0008B71A00081B
:10018000B71A0008B71A0008DFF80CD004F098FB83
:100190000048004759020008C82E002030BF72B640
:1001A000704762B6704780F30888704710B5002129
:1001B00007E04AF2104200BF131EA2F10102FBD178
:1001C000491C8142F5D310BD10B5002106E028225C
:1001D00000BF131EA2F10102FBD1491C8142F6D3DC
:1001E00010BD00BF011EA0F1010290B2FAD170470C
:1001F00000BF00BF4FF47A7003F054FEFAE700BF6F
:1002000000BF2B4800F047FE2A4800F044FE64205F
:1002100003F048FEF5E770B50446002500BF04F082
:1002200080F803F015FF0546002003F0AAF82249E4
:1002300008600A23214A0021214803F0EDFA142323
:10024000204A0021204803F0E7FA052003F062FD70
:10025000284603F001FF70BD10B501F085FB4FF497
:10026000A06101F00702194B18684FF6FF03184010
:10027000174B034343EA0220144B186000BF00F001
:1002800061F800F02BF800F0A5FC00F0A9FB00F0ED
:10029000F6FB00F00DF901F04BFD05230D4A00219E
:1002A0000D4803F0B9FA01F06AFE002010BD00000D
:1002B0000030014000380040000000207408002099
:1002C000FF010008740C0020F10100080CED00E0B3
:1002D0000000FA0574040020170200081CB5012173
:1002E000084601F095F901208DF8040000208DF8F2
:1002F00006004FF48070009000208DF805006946DC
:100300000F4800F03FFF4FF480700D4948831CBD3B
:1003100070B50446002510E04FF48070084908834A
:100320004FF47A7003F0BEFD4FF4807004494883A7
:100330004FF47A7003F0B6FD6D1CA542ECDB70BD86
:10034000000002401CB50121084601F061F90121BD
:10035000022001F05DF90121082001F059F9012185
:10036000402001F055F92B4800F09EFE01208DF849
:10037000040000208DF80600F020009000208DF889
:1003800005006946234800F0FDFE402021494883CE
:100390008020488320204883102048831CBD10B54E
:1003A00010201C4948834FF4FA6003F07BFD2020A5
:1003B000184948834FF4FA6003F074FD4020154952
:1003C00048834FF4FA6003F06DFD802011494883A3
:1003D0004FF4FA6003F066FD10200E4908834FF4D5
:1003E000FA6003F05FFD20200A4908834FF4FA60A9
:1003F00003F058FD4020074908834FF4FA6003F0EA
:1004000051FD8020034908834FF4FA6003F04AFD50
:1004100010BD0000000002401CB50121022001F0C7
:10042000F7F84FF44070009001208DF80400002090
:100430008DF8060002208DF8050069461A4800F084
:10044000A1FE4FF48071184800F018FF4FF40071BE
:10045000154800F015FF1CBD70B50446112C00DDD9
:1004600011241248055D00261AE04FF480710E48F1
:1004700000F006FF05F0010028B14FF400710A48B2
:1004800000F0FCFE04E04FF40071074800F0F8FEB5
:100490004FF48071044800F0F1FE6D10701CC6B27C
:1004A000082EE2DB70BD0000000402400249000893
:1004B00010B53148006840F002002F49086040F252
:1004C000CF702E4908604720091F08802B482C3820
:1004D000008840F0800029492C39088027481C38C2
:1004E000008820F0010025491C390880081F008879
:1004F00040F00100091F088020482C38008840F097
:1005000001001E492C39088003231D2201210020EF
:1005100000F052F810BD10B518481C38008800F0E3
:100520000100F8B10020164908601649086000244F
:1005300016E000F004FB12490A680968491C104BD8
:100540001960191D41F8220000F018FB0D490A68D6
:100550000968491C0B4B1960191D41F82200641CE5
:10056000322CE6DB05481C38008820F001000349E6
:100570001C39088010BD0000403802402C040040A7
:10058000980C0020640D00204A0A52020243FE4BE0
:100590001A6070470146072323EA01021202FA4B50
:1005A0001B1D18684FF6FF031840F84B1843104303
:1005B000F54B1B1D186070472DE9F0410746884632
:1005C00014461D462846FFF7E5FFC5F1040007FA6B
:1005D00000F60F20284100EA0800064306F00F0647
:1005E000E21704EBD2625211920002F1E022D2F83B
:1005F00000212146E31704EBD3635B11A4EB431CFA
:10060000012303FA0CF31A432046E31704EBD363E8
:100610005B119B0003F1E023C3F80021DC48005D7F
:1006200040EA0610DA490855BDE8F081F0B5034606
:100630000846CD1701EB9575AD10A1EB8505AD060C
:100640002C0ED448006840F48040D24D2860CD176D
:1006500001EB9575AE10D04D55F826500F26A640EB
:10066000B5430846CE1701EB9676B710CA4E46F84A
:100670002750CD1701EB9575AE10C74D55F8265094
:1006800003FA04F63543CE1701EB9676B710C24E47
:1006900046F82750C148006801258D402843BF4DCA
:1006A000286002F0010040B1BC480C300068012510
:1006B0008D402843B94D0C35286002F0020040B14E
:1006C000B6480830006801258D402843B34D0835F1
:1006D0002860F0BD30B5CC1000F1200353F8243071
:1006E0004C07E50E0F24AC40A343CD1000F12004CD
:1006F00044F82530CC1000F1200353F824304C0787
:10070000E40E02FA04F42343CD1000F1200444F86F
:10071000253030BD2DE9F0470C46DDE908670021A2
:1007200000258C4600BF60E04FF0010808FA01F593
:1007300004EA050CAC4557D1D0F800804FEA410AD5
:100740004FF0030909FA0AF928EA0908C0F80080FD
:10075000D0F800804FEA410902FA09F948EA09088D
:10076000C0F80080012A01D0022A27D1D0F80880E1
:100770004FEA410A4FF0030909FA0AF928EA090881
:10078000C0F80880D0F808804FEA410906FA09F954
:1007900048EA0908C0F80880D0F804904FF0010832
:1007A00008FA01F829EA0809C0F80490D0F8048092
:1007B00003FA01F948EA0908C0F80480D0F80C806F
:1007C0004FEA410A4FF0030909FA0AF928EA090831
:1007D000C0F80C80D0F80C804FEA410907FA09F9FB
:1007E00048EA0908C0F80C80491C10299CD3BDE8D0
:1007F000F08710B564480830006840F00400624992
:10080000083108606348001F006840F0805061496B
:10081000091F08606248406840F480706049486081
:100820000846006840F0040008600846006840F090
:1008300002000860FFF7B2FC10BD5448001D524989
:10084000091D08607047F0B504460D4600210020E0
:10085000504E443E366846F480364E4F443F3E602C
:1008600001E04E1CB1B24B4E443E366806F40036F1
:100870001EB941F6FF76B142F3DB41F6FF76B14295
:1008800001D1012063E0434E361F366846F08056A2
:10089000404F3F1F3E60424E366846F44046404F50
:1008A0003E603C4E3C3E366846F41446394F3C3F71
:1008B0003E60384E443E366826F08076354F443FE1
:1008C0003E6045EA84160127C7EB520746EA074611
:1008D00046EA036646F480062E4F403F3E603E1FC8
:1008E000366846F080763F1F3E6000BF294E443E8A
:1008F000366806F00076002EF8D02A4E366846F4A8
:100900008076284F3E603E46366846F400763E606C
:100910003E46366846F480663E603E46366846F09F
:1009200005063E601B4E3C3E366826F00306194F16
:100930003C3F3E603E46366846F002063E6000BFE1
:10094000144E3C3E366806F00C06082EF8D1F0BD79
:10095000F0B504460D4616461F460E48443800685A
:1009600040F001000B4944390860002009493C3936
:1009700008600848443800680B4908400549443974
:1009800008600A48091D13E008ED00E00000FA05C0
:1009900000E400E04438024008380140003C0140D7
:1009A00000700040003C0240FFFFF6FE10300024C3
:1009B0000860081F006820F48020091F08600020DC
:1009C000064908603B46324629462046FFF73BFF72
:1009D00000210846FFF7D8FDF0BD00000C380240AA
:1009E0001CB500247648006840F003007449086094
:1009F00073481430006840F4805071491431086025
:100A00000120022100230A46CDE9001018216D487B
:100A1000FFF780FE0020022103460122CDE90010ED
:100A200089036948FFF776FE052203216548FFF731
:100A300051FE052204216348FFF74CFE05220F21D9
:100A40006148FFF747FE5E480C38006840F480506C
:100A50005B490C3908600846006820F48050086043
:100A600044F4006444F4007444F4807444F00404D6
:100A700044F0280444F04004544804801CBD1CB5D4
:100A800000244F48006840F002004D4908604C487F
:100A90001030006840F4804049491031086001205E
:100AA000022100230A46CDE900104FF4C041454819
:100AB000FFF730FE0020022103460122CDE900109D
:100AC000C9024048FFF726FE05220C213D48FFF7EA
:100AD00001FE05220D213B48FFF7FCFD05220E21FA
:100AE0003848FFF7F7FD36481038006840F480407A
:100AF0003349103908600846006820F480400860D7
:100B000044F4006444F4007444F4807444F0040435
:100B100044F0200444F040042D4804801CBD0246EB
:100B200000BF108900F002000028FAD0918100BFB8
:100B3000108900F001000028FAD09089704730B584
:100B40000025002300244FF400401F4908834FF67E
:100B5000FF711E48FFF7E3FF03464FF6FF711B4886
:100B6000FFF7DDFF04464FF4004017494883C3F305
:100B70000903A41244EA8315284630BD70B5002647
:100B8000002400254FF480510E4800F079FB4FF609
:100B9000FF710F48FFF7C3FF04464FF6FF710C4883
:100BA000FFF7BDFF05464FF48051064800F066FB95
:100BB000C4F30904AD1245EA8416304670BD000046
:100BC0003038024000040240000002400030014082
:100BD000003800409FEDFD0BFE4880ED040B9FEDBB
:100BE000FE0B80ED0A0B9FEDFE0B80ED000B9FEDE1
:100BF000FE0B80ED020B9FEDF80B80ED120B9FEDCD
:100C0000F60B80ED160B9FEDFA0BFB4880ED000B09
:100C10009FEDFA0B80ED020B9FEDF50B80ED040BC1
:100C20009FEDF80B80ED060B9FEDE80BF74880ED8C
:100C3000040B9FEDE90B80ED0A0B9FEDE90B80EDB6
:100C4000000B9FEDE90B80ED020B9FEDE30B80EDB8
:100C5000120B9FEDE10B80ED160B9FEDE50BE648C7
:100C600080ED000B9FEDE50B80ED020B9FEDE00B9F
:100C700080ED040B9FEDE30B80ED060B704770B524
:100C80002DED028B044600259FEDE10AB0EE408A6F
:100C90009FEDDF0AF0EE408A00202EE0211D51F882
:100CA00020100D44211D51F8201000EE101AB8EE4E
:100CB000C00AB4EEE80AF1EE10FA08DD211D51F881
:100CC000201000EE101AB8EEC00AF0EE408A211D86
:100CD00051F8201000EE101AB8EEC00AB4EEC80A9F
:100CE000F1EE10FA08D2211D51F8201000EE101A72
:100CF000B8EEC00AB0EE408A401C21688142CDDCCB
:100D000000EE105AB8EEC00A30EE680A70EE480ADB
:100D10002068801E00EE100AB8EEC00A80EE801A2D
:100D200011EE106A304603F0D6FC41EC100BBDEC1E
:100D3000028B70BD10B52DED088B0446B0EE408AD5
:100D4000F0EE608A94ED042BB0EE420AF0EE620AF7
:100D500094ED122BB0EE421AF0EE621A53EC102B07
:100D600051EC110B03F0B7FBC4E9060194ED002B25
:100D7000B0EE420AF0EE620A94ED0A2BB0EE421A8F
:100D8000F0EE621A53EC102B51EC110B03F0FCFA4D
:100D9000C4E90C0194ED022BB0EE420AF0EE620AB7
:100DA00094ED0C2BB0EE421AF0EE621A53EC102BBD
:100DB00051EC110B03F0E8FA41EC190B94ED0C1B0C
:100DC000B0EE410AF0EE610A53EC192B51EC100B16
:100DD00003F0F3FBC4E9100194ED062BB0EE420AD8
:100DE000F0EE620A94ED162BB0EE421AF0EE621AA3
:100DF00053EC102B51EC110B03F06DFB41EC1B0B72
:100E000053EC182B03F064FB41EC1A0B94ED101B10
:100E1000B0EE410AF0EE610A53EC102B03F05BFBDD
:100E200041EC190B94ED061BB0EE410AF0EE610A9D
:100E300053EC102B03F0A8FAC4E9080194ED101B41
:100E4000B0EE410AF0EE610A53EC102B9FED621BED
:100E500051EC110B03F039FB41EC190B94ED0C1B19
:100E6000B0EE410AF0EE610A53EC102B03F033FBB5
:100E7000C4E90E0194ED0E0B84ED0A0B94ED080B02
:100E800084ED040B94ED080B84ED180B94ED180B16
:100E9000BDEC088B10BD10B52DED068B04465D48EA
:100EA00084425AD15C48FFF7EAFEB0EE408AF0EE89
:100EB000608A51EC180B03F021FC58490860084681
:100EC00090ED000A10EE101A084603F004FC41EC05
:100ED000190BB0EE490AF0EE690A3E48FFF72AFF07
:100EE000B0EE408AF0EE608A51EC180B03F006FC7D
:100EF0004A494860084690ED010A10EE101A08466B
:100F000003F0E9FB41EC1A0B3B4890ED001BB0EEFF
:100F1000410AF0EE610A53EC102B51EC1A0B03F06E
:100F2000DAFA41EC190B344890ED021BB0EE410A9D
:100F3000F0EE610A53EC102B51EC190B03F024FA7C
:100F400041EC180B03F0A8FB00B2344908810846B5
:100F5000B0F90800BDEC068B10BD3148844265D164
:100F60003048FFF78CFEB0EE408AF0EE608A51EC1C
:100F7000180B03F0C3FB2C490860084690ED000AEB
:100F800010EE101A084603F0A6FB41EC190BB0EE68
:100F9000490AF0EE690A1D48FFF7CCFEB0EE408A20
:100FA000F0EE608A51EC180B03F0A8FB1E49486074
:100FB000084690ED010A10EE101A084603F08BFB6C
:100FC00041EC1A0B0C4890ED001B30E000000000D3
:100FD00000000000300E0020000000000000F03F84
:100FE0003BDF4F8D976E823F0AD7A3703D0AC73F04
:100FF000A1B94E232D95973F780C00209A99999985
:10100000997969C0CDCCCCCCCC7C7FC0980E002027
:101010000000000000300140980C0020000F00206C
:1010200000380040640D00200C0F002023E0B0EEDB
:10103000410AF0EE610A53EC102B51EC1A0B03F04D
:101040004AFA41EC190B0D4890ED021BB0EE410A33
:10105000F0EE610A53EC102B51EC190B03F094F9EC
:1010600041EC180B03F018FB00B205490881084653
:10107000B0F908006EE74FF0FF306BE7780C002006
:101080000C0F0020704706E04FF4FA70FFF78EF85F
:101090000920FFF7E1F9F7E700BFFEE700BFFEE731
:1010A00000BFFEE77047704710B504468C48844285
:1010B00008D10121084600F000FB0021012000F0CA
:1010C000FCFA5EE08748844208D10121022000F04A
:1010D000F4FA0021022000F0F0FA52E08248844243
:1010E00008D10121042000F0E8FA0021042000F0DA
:1010F000E4FA46E07D48844208D10121082000F04E
:10110000DCFA0021082000F0D8FA3AE0784884425E
:1011100008D10121102000F0D0FA0021102000F0A9
:10112000CCFA2EE07348844208D10121202000F03F
:10113000C4FA0021202000F0C0FA22E06E48844268
:1011400008D10121402000F0B8FA0021402000F031
:10115000B4FA16E06948844208D10121802000F0E9
:10116000ACFA0021802000F0A8FA0AE0644884422A
:1011700007D10121801500F0A0FA0021A01500F090
:101180009CFA10BDF0B50A4600210023002400BFE0
:101190003DE0012505FA01F3156805EA03049C42C8
:1011A00034D105684F000326BE40B543056015796C
:1011B0004E00B5400668354305601579012D02D013
:1011C0001579022D16D185684F000326BE40B54320
:1011D000856055794E00B540866835438560456821
:1011E00001268E40B5434560456896798E40B6B27B
:1011F00035434560C5684F000326BE40B543C56012
:10120000D5794E00B540C6683543C560491C1029E4
:10121000BFD3F0BD4FF6FF71016000210171417134
:101220008171C171704708B54FF480320092009A05
:101230000A430092009AC261C161009AC261C26908
:101240000092C269009208BD0246002013690B405B
:101250000BB1012000E0002070470146086980B210
:1012600070470246002053690B400BB1012000E09B
:10127000002070470146486980B27047018370477B
:10128000418370470AB1018300E0418370474161A7
:10129000704742694A4042617047F0B5002300241C
:1012A0004D07ED0E02FA05F3CE1000F1200555F8BA
:1012B00026504E07F70E0F26BE40B543CF1000F163
:1012C000200646F82750CE1000F1200555F826508C
:1012D00045EA0304CE1000F1200545F82640F0BD94
:1012E000000002400004024000080240000C0240DE
:1012F000001002400014024000180240001C02408E
:1013000000200240FA48006840F00100F8490860F7
:101310000020F74908310860F5480068F5490840A1
:10132000F3490860F448091D0860081F006820F4AC
:101330008020091F08600020ED490C3108607047CB
:101340000021EB4A921C117011460870704710B5CD
:1013500001460022002300204A11012A02D1E44C58
:10136000236808E0022A03D1E14C7034236802E0CC
:10137000DF4C7434236801F01F02012494401C40A8
:101380000CB1012000E0002010BD38B50020009015
:101390000024002500BF3120FFF7D9FF0546009843
:1013A000401C00900098B0F5A06F01D0002DF2D045
:1013B0003120FFF7CCFF08B1012400E000242046D3
:1013C00038BD01460020CA4A106820F0F80040EA03
:1013D000C10010607047C949086070470021C44AC5
:1013E000703211701170012802D004280AD104E073
:1013F0000121BF4A7032117005E00521BC4A7032EC
:10140000117000E000BF00BF7047BD490860704721
:1014100070B5049C41EA82150126C6EB530645EAE5
:101420000645054345EA0465B14E361D356070BD7D
:10143000B24908667047820142EA0172AC4B8433BC
:101440001A607047AD4988667047AC49C8647047F8
:1014500002460020A64B0833186820F0EC6042EAF0
:1014600001031843A24B083318607047024600205E
:101470009F4B0833186820F0784042EA0103184374
:101480009B4B08331860704701460020984A083289
:10149000106820F00300084310607047944808303B
:1014A000006800F00C00704701460020904A0832A6
:1014B000106820F0F00008431060704701460020DB
:1014C0008B4A0832106820F4E050084310607047DF
:1014D00001460020864A0832106820F4604040EA45
:1014E000C10010607047F0B50021002200240225E1
:1014F000002602237E4F08373F6807F00C0121B118
:10150000042905D0082937D105E07E4F076036E071
:101510007D4F076033E0764F3F1D3F68C7F380562D
:10152000734F3F1D3F6807F03F036EB1764FB7FB27
:10153000F3F7DFF8BCC10CF1040CDCF800C0CCF30D
:10154000881C07FB0CF40CE06E4FB7FBF3F7DFF8D9
:10155000A0C10CF1040CDCF800C0CCF3881C07FB24
:101560000CF4634F3F1D3F68C7F301477F1C7D00AC
:10157000B4FBF5F7076002E0624F076000BF00BFF1
:101580005B4F08373F6807F0F00109095F4F7A5C4D
:101590000768D7404760564F08373F6807F4E05167
:1015A000890A5A4F7A5C4768D7408760504F08379E
:1015B0003F6807F46041490B544F7A5C4768D74055
:1015C000C760F0BD002100F44072B2F5407F0AD13F
:1015D000474A0832116821F4F8114D4A024011437C
:1015E000434A08321160424A70321268C0F30B035A
:1015F0001A433F4B70331A607047414944390860C1
:1016000070473F4940390860704742490860704759
:1016100039B1374A303212680243354B30331A60E1
:1016200006E0334A303212688243314B30331A605D
:10163000704739B12E4A3432126802432C4B34338E
:101640001A6006E02A4A343212688243284B343347
:101650001A60704739B1264A383212680243244B67
:1016600038331A6006E0224A383212688243204B2F
:1016700038331A60704739B11D4A4032126802434C
:101680001B4B40331A6006E0194A4032126882430D
:10169000174B40331A60704739B1154A443212680B
:1016A0000243134B44331A6006E0114A4432126875
:1016B00082430F4B44331A60704739B10C4A1032E1
:1016C000126802430A4B10331A6006E0084A1032CF
:1016D00012688243064B10331A607047E1B1044A26
:1016E000143212680243024B14331A6019E00000EE
:1016F00000380240FFFFF6FE103000240000474291
:10170000800E47420024F40040787D010400002050
:10171000FFFCFF0F5C0147425B4A126882435A4B51
:101720001A60704739B1584A121D12680243564B6D
:101730001B1D1A6006E0544A121D12688243524B68
:101740001B1D1A60704739B14F4A0C3212680243B0
:101750004D4B0C331A6006E04B4A0C321268824340
:10176000494B0C331A60704739B1474A103212683E
:101770000243454B10331A6006E0434A10321268A8
:101780008243414B10331A60704739B13E4A3C32B4
:10179000126802433C4B3C331A6006E03A4A3C3242
:1017A00012688243384B3C331A60704739B1364A6D
:1017B000403212680243344B40331A6006E0324A2A
:1017C000403212688243304B40331A60704739B15F
:1017D0002D4A4432126802432B4B44331A6006E010
:1017E000294A443212688243274B44331A607047B7
:1017F00039B1254A4C3212680243234B4C331A60EC
:1018000006E0214A4C32126882431F4B4C331A6067
:10181000704739B11C4A5032126802431A4B503398
:101820001A6006E0184A503212688243164B503351
:101830001A60704739B1144AD21F12780243124B12
:10184000DB1F1A7006E0104AD21F127882430E4B3B
:10185000DB1F1A7070470C486030006840F08070E1
:10186000094960310860704701460020064A083A7D
:1018700012680A400AB1012000E0002070470249C6
:10188000891F087070470000143802400CB5002012
:10189000019000907648006840F4803074490860F8
:1018A00000BF7348006800F4003000900198401CAD
:1018B0000190009818B90198B0F5A06FF1D16C486B
:1018C000006800F4003010B10120009001E0002019
:1018D00000900098012846D165484030006840F0EB
:1018E00080506349403108606248006840F480409D
:1018F000604908605E48083000685D49083108604A
:101900000846006840F4004008600846006840F45B
:10191000A05008605848091F0860081F006840F080
:101920008070091F086000BF5148006800F0007017
:101930000028F9D040F20560504908604C48083052
:10194000006820F003004A49083108600846006832
:1019500040F00200086000BF45480830006800F011
:101960000C000828F8D10CBD10B54548006840F4BB
:101970007000434908603E48006840F001003C495F
:10198000086000203A4908310860394800683D493C
:101990000840374908603C48091D0860081F006876
:1019A00020F48020091F0860002031490C310860B4
:1019B000FFF76CFF4FF0006031498039086010BDBF
:1019C00070B500200022022300240221284D083592
:1019D0002D6805F00C0020B1042806D0082834D169
:1019E00007E02A4D2A4E356033E02A4D284E3560F7
:1019F0002FE01F4D2D1D2D68C5F380541C4D2D1D4E
:101A00002D6805F03F0154B1224DB5FBF1F5184E9C
:101A1000361D3668C6F3881605FB06F209E01B4D35
:101A2000B5FBF1F5124E361D3668C6F3881605FB78
:101A300006F20F4D2D1D2D68C5F301456D1C6B0081
:101A4000B2FBF3F5124E356003E0104D104E3560D9
:101A500000BF00BF064D08352D68C5F303150E4EB7
:101A6000705D0B4D2D68C540094E356070BD00009E
:101A7000003802400070004019544007003C02400A
:101A800088ED00E0FFFFF6FE103000240024F40093
:101A90001400002040787D0118000020064880478F
:101AA00006480047FEE7FEE7FEE7FEE7FEE7FEE743
:101AB000FEE7FEE7FEE7FEE7691900088901000876
:101AC0007CB5002514E06946284602F0E3F8064696
:101AD00066B9FD4850F8254044B1012C06D0D4E940
:101AE000020100EB810060640198A064681CC5B22B
:101AF0003F2DE8D97CBD00BF00BF03E04FF4FA6082
:101B000002F0D0F9F14800780028F7D0F0480068DA
:101B10006421B0FBF1F0EE4908600846006828B97E
:101B20000020EC490870FF2002F0F4F802F090FA6F
:101B30000446E748006864214843E74908602046B6
:101B400002F08AFA00BF02F083FA0446E248006815
:101B5000E24908600020E0490860204602F07CFA73
:101B6000DE480068DA490968B0FBF1F0C0F16400B2
:101B7000D849087002F0CAFAFFF7A2FF4FF47A7052
:101B800002F090F9DFE700B587B003200021802242
:101B9000D34BCDE90132CDE903104FF6FE703E2361
:101BA000D04A0090AFF2B10001F08DFE06AACEA19E
:101BB0003E2001F0F1FF07B000BD002400BF00BFD0
:101BC00002F046FA0446C4480068401CC249086056
:101BD000204602F041FA02F098FAF1E700B587B02A
:101BE000032000218022C44BCDE90132CDE903104E
:101BF0004FF6FF703F23C14A0090AFF2410001F061
:101C000062FE06AABEA13F2001F0C6FF07B000BDDC
:101C100004E0002200F8012B4A1E91B20029F8D1FD
:101C2000704770B54FF49671B948FFF7F1FF002384
:101C30000FE0581C85B203EB8300B54901EB80042B
:101C400005EB850001EB8006002020706660581CC3
:101C500083B20E2BEDD303EB8300AD4901EB80047F
:101C60000020207060600846AA49086070BD70B509
:101C700041F25841A848FFF7CBFF4FF480719248DA
:101C8000FFF7C6FF002413E0601CC5B2C4EBC4001C
:101C900000EB4000A04901EB8003C5EBC50000EB61
:101CA000400001EB80065E619CA0D864601CC4B259
:101CB0003D2CE9D3C4EBC40000EB4000964901EB96
:101CC00080030020586195A0D864002094490860E2
:101CD00091489449086070BD0021934A117000201A
:101CE00004E00021914A1154411CC8B20828F8D3DD
:101CF00000218F4A11708F4A11708F4A11608F4AEC
:101D00001160704700208E4908608E4908708E4926
:101D100008708E4908708E4908708E4908606E49B7
:101D200008606E4908606A49086068490870704731
:101D300010B502F0E5F9FFF7E5FFFFF7CDFFFFF77C
:101D400096FFFFF76EFF00F0F3FE00F0E4FF01F0F6
:101D5000DAFAFFF743FFFFF716FF02F0D3F910BDE1
:101D60007B480078012808D176480078FF2804D203
:101D700074480078401C73490870704776496A4A75
:101D80001278885C6949095C734A515C01EBC001B7
:101D9000684A1170704710B500246D48007801281A
:101DA00030D102F055F904466648007820B1654804
:101DB0000078401E6349087062480078F8B96248AC
:101DC0000078E0B9FFF7DAFF3F485A49097850F840
:101DD00021005949086057480078554909788842D8
:101DE0000DD055480068806B401C534909688863D2
:101DF00058480068401C5749086002F045F92046E1
:101E000002F02AF910BD10B50024514800780128CD
:101E100011D102F01DF904464A48007840B94A48F9
:101E20000078FF2804D248480078401C46490870D2
:101E3000204602F011F910BD10B5002402F008F997
:101E4000044640480078F8B93F480078E0B9FFF709
:101E500095FF1D483749097850F821003649086038
:101E6000344800783249097888420DD032480068F9
:101E7000806B401C30490968886336480068401C04
:101E80003449086002F0FBF8204602F0E5F810BD86
:101E900010B500242E48007801286FD102F0D8F840
:101EA00004462848007860B92748007850B1264891
:101EB0000078401E244908700846007818B920466A
:101EC0004CE058E053E04EE0941400204000002025
:101ED0003800002034000020500000203C0000208A
:101EE000941000209012002075432F4F532D494924
:101EF000205374617400000094120020901400209C
:101F000075432F4F532D49492049646C65000000EB
:101F1000180F00202C000020941500203F00000026
:101F200060000020580000204500002046000020EE
:101F300043000020440000205C00002054000020EA
:101F40007000002041000020420000204F000020CF
:101F50004E000020280000201449000802F07CF800
:101F6000FFF76AFF0AE0204602F076F806E0204616
:101F700002F072F802E0204602F06EF810BD10B5D3
:101F8000EE48007890B9FFF7F9FEED480078ED498A
:101F90000870ED48EA49097850F82100EB490860DB
:101FA00008460068EA49086002F059F810BD10B50B
:101FB0000024022001F076FF02F04AF804460020D7
:101FC000E4490860204602F047F84FF47A7001F0C7
:101FD00069FF02F03DF80446DE480068DE4908600B
:101FE0000120DE490870204602F036F810BD70B5B9
:101FF000002602F07FF902F02BF80646D848006868
:10200000401CD7490860304602F026F8CB480078DB
:10201000012853D1D348007820B1012804D00228E8
:1020200009D103E001250BE0002509E0012501208D
:10203000CC49087004E001250020CA49087000BF9F
:1020400000BF05B970BDC848046833E002F000F86D
:102050000646E06A50B3E06A401EE062E06A28BBD0
:1020600094F8300000F0370040B114F8300F00F061
:10207000C800207001206070303C02E0002084F82D
:10208000310094F8300000F0080078B93434A078BA
:10209000B64909780843B54908702078B449085C06
:1020A0006178084314F83419B14A505464693046D1
:1020B00001F0D2FF94F832003F28C7D100BFC1E73A
:1020C0004FF492707047704710B590F8342001F1CA
:1020D0000B039B5C90F83540A34301F10B04A35420
:1020E00023469B5C23B98B7A90F83640A3438B72CE
:1020F00010BD2DE9F04F05460F4690469946A87A47
:102100009C490E5C05F10B00805D11F800B00BEBF3
:10211000C60000F0FF0A8C4850F82A400020203406
:10212000E0602760207C20EA0800207484F8119089
:10213000207C203C00F0080068B994F836008B49F8
:1021400009780843894908708948805D94F83510FA
:1021500008438749885529462046FFF7B5FF504672
:10216000BDE8F08F10B57A4A1268D061784A1268DB
:1021700092F8343000F10B02D25C754B1B6893F877
:1021800035301A43724B1B6893F8344000F10B034F
:102190001A55827A6E4B1B6893F836301A43827256
:1021A0006B4A126892F83410714A525C684B1B6893
:1021B00093F835309A436E4B5A541A46525C42B9E2
:1021C000634A126892F83630684A12789A43674B2D
:1021D0001A7010BD014600228A72002005E000231B
:1021E00001F10B021354421CD0B20828F7D37047F8
:1021F00005E011F8013B00F8013B531E9AB2002A9A
:10220000F7D170470146002002E0491C421CD0B2C1
:102210000A78002AF9D170472DE9F84F05460F4694
:1022200090469946DDE90AAB0020009001F010FFCE
:10223000009051480468002C7BD0183454F8040CEA
:102240004D490860009801F007FF44F8187CA57616
:10225000002020766076606144F814BC44F80CAC31
:1022600044F8108C0C9824F8080C24F8069C0020E4
:10227000E077E810207705F00700E076217F012065
:102280008840A077E17E0120884060770020606070
:10229000E060A0602062A0626062E0622063AFF252
:1022A00084306063183C002606E0002104F15000F1
:1022B00040F82610701CC6B2002EF6D0204602F060
:1022C00018F801F0C5FE00901F4840F8254000981E
:1022D00001F0C2FE204601F016FF01F0B9FE0090A9
:1022E0002148006860610020A0611F48006810B1AB
:1022F0001D48006884611C4804603434A0781B4980
:10230000097808431949087020781949085C6178F0
:10231000084314F83419164A505418480078401CE1
:1023200016490870009801F097FE0020BDE8F88F6C
:10233000FFE7009801F090FE4220F7E74E000020F2
:102340004400002043000020941400205C00002082
:1023500054000020500000203800002040000020E1
:102360007000002064000020600000204500002074
:102370004600002014490008580000204F000020AB
:102380002DE9F05F04460F4691461E464FF0000BC4
:102390002078052804D0012030700020BDE8F09F8F
:1023A00009F0800ABAF1000F04D029F080094FF03B
:1023B000010801E04FF000080020307001F048FEF5
:1023C0008346B9F1000F2CD0B9F1010F3BD0B9F120
:1023D000020F03D0B9F1030F46D111E0208900EAC2
:1023E0000705BD4206D1B8F1010F05D12089A843E8
:1023F000208101E070203070584601F02DFE3AE057
:10240000208900EA070535B1B8F1010F05D120890F
:10241000A843208101E070203070584601F01CFE76
:1024200029E0208927EA0005BD4206D1B8F1010F55
:1024300005D120892843208101E070203070584662
:1024400001F00AFE17E0208927EA000535B1B8F14E
:10245000010F05D120892843208101E070203070D0
:10246000584601F0F9FD06E0584601F0F5FD00255B
:102470006F20307000BF00BF28468FE72DE9F04184
:1024800006460D460027FA48007820B11020287033
:102490000020BDE8F08101F0DBFD0746F548046847
:1024A00084B100684068F3490860052020702681E7
:1024B00000206060F0A0E060384601F0CDFD002013
:1024C000287004E0384601F0C7FD722028702046CD
:1024D000DFE730B501464A6808682AB9CC68606011
:1024E00028B10025456002E0106000B142608B68B1
:1024F00000255D6230BDF0B506460F46B468002089
:10250000283460602780207A00F0DF0020720020ED
:102510006072207A283C88B93434A078D749097889
:102520000843D64908702078D549085C617808438B
:1025300014F83419D24A5054012500E000253046E1
:10254000FFF7C7FF2846F0BD2DE9F047044689464E
:1025500015464FF0000AC648007820B10F202870B9
:102560002046BDE8F0872078052803D00120287098
:102570002046F6E701F06CFD8246606808B101274D
:1025800000E00027B9F1000F03D0B9F1010F3CD1F1
:1025900019E08FB9B8A0E06000202070B54800684D
:1025A000606000202081B3480460504601F054FD73
:1025B00000202870002605E0504601F04DFD49201E
:1025C0002870264628E0D4F8048005E00021404623
:1025D000FFF791FFD8F80080B8F1000FF6D1A6A060
:1025E000E06000202070A348006860600020208127
:1025F000A0480460504601F02FFD012F01D1FFF7E4
:102600001BFC00202870002606E0504601F024FD47
:1026100007202870264600BF00BF3046A1E72DE9FD
:10262000F04105460E46144600279148007820B137
:10263000112020700020BDE8F08101F009FD07465F
:102640002878052806D0384601F006FD01202070C4
:102650000020F0E7E86830603068FFF7D3FD80467F
:10266000384601F0F9FC002020704046E3E72DE9F0
:10267000F04105460E46144600277D48007818B103
:1026800012202070BDE8F08101F0E2FC07462878B6
:10269000052805D0384601F0DFFC01202070F1E765
:1026A000EE60384601F0D8FC0020207000BFE9E75A
:1026B000F0B51446059E734F3F6897F8307047F0A9
:1026C0002007DFF8C0C1DCF800C08CF830700027AC
:1026D000DFF8B0C1DCF800C08CF83170694F3F689A
:1026E000FE62684F3F6879620C828B74654F3F6869
:1026F0008F6047680F6000274F60C860456805B16C
:10270000696041605F4F3F6897F834205C4FBF5C61
:10271000DFF870C1DCF800C09CF835C027EA0C0770
:10272000DFF85CC10CF802706746BF5C5FB9554FBB
:102730003F6897F836C0514F3F7827EA0C07DFF81B
:102740003CC18CF80070F0BD2DE9F04F89B0054612
:102750000F4691469A46129E002002904448007807
:1027600028B102203070002009B0BDE8F08F464843
:10277000007818B10D2030700020F5E72878052882
:1027800003D0012030700020EEE709F0800BBBF190
:10279000000F04D009F07F094FF0010801E04FF06D
:1027A000000801F055FC0290B9F1000F4AD0B9F1D0
:1027B000010F78D0B9F1020F03D0B9F1030F71D135
:1027C00020E0288900EA0704BC420FD1B8F1010FCC
:1027D00002D12889A04328812A48006804850298EC
:1027E00001F03AFC002030702046BDE74B463A46E7
:1027F00004A92846CDF800A0FFF75AFF029801F07F
:102800002BFC78E0288900EA07047CB1B8F1010FBD
:1028100002D12889A04328811A48006804850298BB
:1028200001F01AFC0020307020469DE74B463A46E6
:1028300004A92846CDF800A0FFF73AFF029801F05E
:102840000BFC58E0288927EA0004BC421ED1B8F1ED
:10285000010F02D12889204328810A480068048595
:10286000029801F0F9FB0020307020467CE71AE066
:1028700041000020300000203F0000004500002003
:102880004600002054000020420000204B463A46FB
:1028900004A92846CDF800A0FFF70AFF029801F02E
:1028A000DBFB28E01FE0288927EA00047CB1B8F1AF
:1028B000010F02D1288920432881B148006804858E
:1028C000029801F0C9FB0020307020464CE74B46CF
:1028D0003A4604A92846CDF800A0FFF7E9FE029881
:1028E00001F0BAFB07E0029801F0B6FB00246F206C
:1028F0003070204638E700BFFFF79EFA01F0A8FBD2
:1029000002909F48006890F8310020B39C4800680E
:1029100090F83100039000209949096881F831004E
:1029200004A8FFF7D6FD00209549096881F830001A
:10293000029801F091FB00240398012805D0022899
:1029400002D10E20307003E000BF0A20307000BFBB
:1029500000BF204608E78A480068048DB8F1010FDF
:102960001ED1B9F1000F0ED0B9F1010F0CD0B9F1A1
:10297000020F03D0B9F1030F0AD100E000BF28898C
:10298000A04328810BE000BF28892043288106E06E
:10299000029801F061FB6F2030700020E4E600BF78
:1029A000029801F059FB002030702046DCE670B53B
:1029B000002501F04DFB054671480068048D28464E
:1029C00001F04AFB204670BD2DE9FC5F04468946B4
:1029D00092461E46002000902078052804D0012051
:1029E00030700020BDE8FC9F01F032FB0090BAF18E
:1029F000000F03D0BAF1010F0AD104E0208920EAC8
:102A0000090020810BE0208940EA0900208106E0CE
:102A1000009801F021FB712030700020E2E700BF38
:102A20004FF0000B656855E0A87C40B3012838D012
:102A3000022802D0032844D111E02089298A00EA23
:102A40000107288AB84209D139462846FFF753FDC5
:102A50008046B8F1010F01D14FF0010B38E0208919
:102A6000298A00EA01074FB139462846FFF743FD9E
:102A70008046B8F1010F01D14FF0010B28E0288A00
:102A8000218920EA0107288AB84209D13946284617
:102A9000FFF731FD8046B8F1010F01D14FF0010B76
:102AA00016E0288A218920EA01074FB139462846D5
:102AB000FFF721FD8046B8F1010F01D14FF0010B66
:102AC00006E0009801F0C8FA6F203070002089E716
:102AD00000BF2D68002DA7D1009801F0BDFABBF111
:102AE000010F01D1FFF7A8F901F0B2FA0090208997
:102AF0000190009801F0B0FA00203070019871E761
:102B00002DE9F04104460D4600272078052804D021
:102B1000012028700020BDE8F08101F099FA0746F5
:102B20002689384601F098FA002028703046F2E7EE
:102B30002DE9F04150211348FFF76AF800250EE017
:102B4000681C86B20F4800EB051400EB0617002046
:102B500020706760AFF2E020E060681C85B2042D51
:102B6000EED3084800EB0514002020706060AFF23F
:102B7000F820E060034804490860BDE8F0810000E7
:102B80005400002044100020300000202DE9FC5F9C
:102B900005460F4691469A460020009001F058FAEB
:102BA00000906F480468006820B16D480068406874
:102BB0006B490860009801F04FFA2CB95A208AF846
:102BC00000000020BDE8FC9FA8462E46781E01901C
:102BD0004FF0000B05E04E44C8F80060B0460BF122
:102BE000010B01988345F6D30020C8F8000025604A
:102BF00065602761E760C4F808908AF80000204605
:102C0000E0E72DE9F04104460D46002701F020FAE7
:102C10000746206968B16668306860602069401EB8
:102C20002061384601F018FA002028703046BDE8CF
:102C3000F081384601F010FA5D2028700020F6E798
:102C40002DE9F04106460C46154600274548007818
:102C500020B1112028700020BDE8F08101F0F8F9C2
:102C60000746706920602068FFF7CCFA8046384636
:102C700001F0F2F9002028704046EDE72DE9F0411F
:102C800005460E46144600273648007818B1122033
:102C90002070BDE8F08101F0DBF907466E6138462F
:102CA00001F0DAF90020207000BFF2E770B50446A9
:102CB0000D46002601F0CCF90646D4E903108842FF
:102CC00004D3304601F0C8F95E2070BD606828600A
:102CD00065602069401C2061304601F0BDF900208C
:102CE000F3E770B505460C46002601F0B1F906463B
:102CF0002868206068686060A868A060E868E06094
:102D000028692061304601F0A7F9D4E90301401A8F
:102D10006061002070BD70B578211348FEF778FF20
:102D200000240EE004EB44000F4901EBC005601CD9
:102D300000EB400001EBC00068600CA06861601C03
:102D400084B2042CEED304EB4400074901EBC00528
:102D50000020686005A0686108460149086070BDF0
:102D60006800002041000020EC2900203F00000006
:102D70002DE9F04106460D464FF000083078022854
:102D800004D0012028700020BDE8F08101F060F936
:102D900080467468E08A78B12169081D20610F6857
:102DA000E08A401EE082A1682069884201D1606803
:102DB00020610020287002E01F2028700027404674
:102DC00001F04AF93846DFE72DE9F04106460F46A3
:102DD0004FF00008F748007810B10020BDE8F081FE
:102DE00001F036F98046F4480568006820B1F248E1
:102DF00000684068F0490860404601F02DF93DB395
:102E000001F026F98046ED480468C4B10068006806
:102E1000EA490860404601F01FF9666006EB87004A
:102E2000A060E6602661A7820020E0820220287070
:102E3000002028816C602846FFF7CCF908E0DE48C6
:102E400000686860DC480560404601F005F900252F
:102E50002846C3E72DE9F0470446894615464FF05A
:102E6000000A2078022804D0012028702046BDE8FE
:102E7000F087D048007818B10F2028702046F6E778
:102E800001F0E6F88246A07A10B14FF0010801E0A7
:102E90004FF00008B9F1000F03D0B9F1010F45D18F
:102EA0001FE0B8F1000F15D16668C44800683060B3
:102EB000C248066000202070BF48006860600020A3
:102EC0002081BD480460504601F0C6F800202870FB
:102ED000002705E0504601F0BFF84920287027463A
:102EE0002BE005E00023042219462046FFF701F9F4
:102EF000A07A0028F6D16668B04800683060AF4814
:102F0000066000202070AC480068606000202081CE
:102F1000A9480460504601F09FF8B8F1010F01D1B3
:102F2000FEF78AFF00202870002706E0504601F0D7
:102F300093F807202870274600BF00BF384696E761
:102F400070B50546002601F083F806466C68606897
:102F5000E060606820610020E082304601F07CF88B
:102F6000002070BD2DE9F0470746884615464FF012
:102F700000093878022804D0012028700020BDE81C
:102F8000F0878C48007818B1022028700020F6E7FE
:102F90008B48007818B10D2028700020EFE701F071
:102FA00057F881467C68E08A98B12169081D206144
:102FB0000E68E08A401EE082A1682069884201D143
:102FC00060682061484601F047F8002028703046CC
:102FD000D5E77C48006890F8300040F0040079495B
:102FE000096881F8300000207649096881F83100CD
:102FF00074480068C0F82C803846FFF7B3F848469C
:1030000001F02AF8FEF718FF01F022F881466D481A
:10301000006890F8310020B101280DD002280AD1B3
:1030200005E068480068066A002028700DE0002668
:103030000E20287009E000BF394662480068FFF79B
:1030400043F800260A20287000BF00BF00205D4919
:10305000096881F830005B49096881F831005949F5
:103060000968C861574909680862484600F0F4FFDA
:10307000304684E72DE9F04104460F4615464FF0EF
:1030800000082078022804D0012028700020BDE824
:10309000F08100F0DDFF8046A07A20B300267FB1EA
:1030A000012F0CD107E00223042200212046FFF764
:1030B00020F8701CC6B2A07A0028F4D109E000BF45
:1030C0000223042200212046FFF713F8701CC6B229
:1030D00000BF00BF404600F0BFFFFEF7ADFE0E2070
:1030E00028703046D3E7404600F0B6FF0020287035
:1030F00000BFCCE72DE9F04105460E4600272878B1
:10310000022802D00120BDE8F08100F0A1FF0746AF
:10311000A87A60B10023042231462846FEF7E9FF71
:10312000384600F099FFFEF787FE0020EBE76C6859
:10313000E08AA18A884204DB384600F08DFF1E2019
:10314000E1E7E168081DE0600E60E08A401CE08273
:10315000D4E90210884201D16068E060384600F08E
:103160007BFF0020CFE72DE9F04105460E46002702
:103170002878022802D00120BDE8F08100F068FF25
:103180000746A87A60B10023042231462846FEF79C
:10319000B0FF384600F060FFFEF74EFE0020EBE780
:1031A0006C68E08AA18A88420EDB384600F054FF42
:1031B0001E20E1E7410000202C0000206C000020D0
:1031C000420000205400002061682069884201D13B
:1031D000A06820612069001F206120690660E08AE4
:1031E000401CE082384600F037FF0020C4E72DE99C
:1031F000F04105460F4616464FF000082878022891
:1032000002D00120BDE8F08100F022FF8046A87ABC
:10321000E8B106F0010050B105E000230422394670
:103220002846FEF766FFA87A0028F6D105E00023BD
:10323000042239462846FEF75CFF404600F00CFFAA
:1032400006F0040008B9FEF7F7FD0020DAE76C6825
:10325000E08AA18A884204DB404600F0FDFE1E2081
:10326000D0E706F0020058B161682069884201D1B8
:10327000A06820612069001F20612069076009E0C3
:10328000E168081DE0600F60D4E90210884201D1B6
:103290006068E060E08A401CE082404600F0DCFEAE
:1032A0000020AFE72DE9F04705460C464FF0000A35
:1032B0002878022802D00120BDE8F08700F0C8FE7F
:1032C0008246A87A207405F10B0804F1080900274A
:1032D00005E018F8010B09F8010B781CC7B2082F9C
:1032E000F7D36E68F08A18B130690068206001E099
:1032F00000202060F08AA080B08AE080504600F074
:10330000ABFE0020D8E72DE9F04160211048FEF720
:103310007FFC00240DE0601C86B204EB44000C49E5
:1033200001EBC00506EB460001EBC0072F60601CF7
:1033300084B2032CEFD304EB4400054901EBC00534
:1033400000202860084603490860BDE8F0810000BD
:10335000642A00206C00002070B504460026207806
:10336000032801D0002070BD00F072FE06462589BA
:1033700015B12089401E2081304600F06DFE2846A0
:10338000F1E770B505460026D248007808B1002064
:1033900070BD00F05DFE0646CF480468006820B1AD
:1033A000CD4800684068CC490860304600F054FEC3
:1033B0003CB1032020702581002060602046FEF78C
:1033C00009FF2046E4E72DE9F04704468846154604
:1033D0004FF000092078032804D0012028702046EF
:1033E000BDE8F087BB48007818B10F202870204650
:1033F000F6E700F02DFE8146A07A08B1012700E033
:103400000027B8F1000F03D0B8F1010F35D117E054
:103410007FB900202070B0480068606000202081E3
:10342000AD480460484600F017FE002028700026D2
:1034300005E0484600F010FE49202870264623E0AB
:1034400005E00023012219462046FEF752FEA07A2D
:103450000028F6D12070A04800686060002020811C
:103460009D480460484600F0F7FD012F01D1FEF7AA
:10347000E3FC00202870002606E0484600F0ECFD42
:1034800007202870264600BF00BF3046A8E72DE978
:10349000F04105460E46144600272878032803D03D
:1034A00001202070BDE8F0818A48007810B1022028
:1034B0002070F7E78948007810B10D202070F1E7FF
:1034C00000F0C6FD0746288940B12889401E2881A2
:1034D000384600F0C1FD00202070E3E78048006816
:1034E00090F8300040F001007D49096881F8300013
:1034F00000207B49096881F8310079480068C6627C
:103500002846FEF72FFE384600F0A6FDFEF794FC95
:1035100000F09EFD07467248006890F8310020B127
:10352000012809D0022806D102E0002020700BE01B
:103530000E20207008E000BF294669480068FEF7A9
:10354000C3FD0A20207000BF00BF00206449096845
:1035500081F830006249096881F8310060490968E2
:10356000C861384600F078FD00BF9BE72DE9F041C7
:1035700004460F4615464FF000082078032804D073
:10358000012028700020BDE8F08100F061FD804638
:10359000A07A20B300267FB1012F0CD107E00223CF
:1035A000012200212046FEF7A4FD701CC6B2A07ABD
:1035B0000028F4D109E000BF0223012200212046A7
:1035C000FEF797FD701CC6B200BF00BF404600F07A
:1035D00043FDFEF731FC0E2028703046D3E740460D
:1035E00000F03AFD0020287000BFCCE770B504461B
:1035F00000252078032801D0012070BD00F028FDAF
:103600000546A07A60B10023012219462046FEF744
:1036100070FD284600F020FDFEF70EFC0020ECE7D0
:1036200020894FF6FF71884207D22089401C2081F3
:10363000284600F011FD0020DFE7284600F00CFDD1
:103640003320DAE72DE9F04704460D464FF0000934
:103650002078032802D00120BDE8F08700F0F8FCB4
:103660008146A07AA87204F10B0705F10208002632
:1036700005E017F8010B08F8010B701CC6B2082E04
:10368000F7D320892880484600F0E6FC0020E3E7D5
:103690002DE9F04104460E46154600272078032800
:1036A00003D001202870BDE8F08100F0D1FC07466E
:1036B00000202870208908B1268105E0A07A08B989
:1036C000268101E049202870384600F0C5FC00BF83
:1036D000E9E70000410000202C000020420000200B
:1036E000540000202DE9FF5F8146884600200090AD
:1036F00000F0AEFC0090F94850F8280030B1009876
:1037000000F0AAFC282004B0BDE8F09FB9F1FF0F3B
:1037100003D1F348006890F83290F04850F82940FF
:1037200024B9009800F098FC2920ECE7012C04D182
:10373000009800F091FC4320E5E74FEAE80708F025
:10374000070003900120B84000F0FF0A0121039810
:10375000814001F0FF0B0020E04941F829000846B4
:1037600040F8284014F8346FA07802906078343C18
:103770000190DC48815D01980140D1B1D948805D5C
:1037800001998843D74988550846805D28B9D648AD
:10379000007802998843D4490870D348007840EAF9
:1037A0000A00D1490870CF48C05D40EA0B00CD49FE
:1037B000C855E569D5B105F10B00805D01998843D5
:1037C00005F10B0188550846805D18B9A87A029961
:1037D0008843A872A87A40EA0A00A87205F10B0093
:1037E000C05D40EA0B0005F10B01C85584F832803A
:1037F00084F83470039884F8330084F836A084F891
:1038000035B0009800F028FCB8480078012801D1B4
:10381000FEF712FB002076E72DE9FE4F06460F4625
:1038200090461C464FF0000900F012FC8146B0485B
:10383000007828B1484600F00FFC3C20BDE8FE8F20
:10384000A64850F8240060BB0120A44941F8240098
:10385000484600F001FC002342463946304600F05D
:1038600056FC8246002000900190034602465146D5
:1038700002902046FEF7D0FC054635B99B480078FB
:1038800001280CD1FEF7D8FA09E000F0E1FB8146EF
:103890000020924941F82400484600F0DDFB28460C
:1038A000CCE7484600F0D8FB2820C7E702F0010328
:1038B00043B102F002032BB102E0491E002308C00D
:1038C0000029FAD170472DE9F04F85B081468A462C
:1038D00093461C46DDE90F78129D0020039000F00E
:1038E000B7FB03908248007830B1039800F0B4FB36
:1038F0003C2005B0BDE8F08F784850F8240088BB24
:103900000120764941F82400039800F0A5FB2A46DF
:1039100041463846FFF7CAFF2B465A4651464846AD
:1039200000F0F5FB04901198CDE9008002953A462D
:1039300020460E9B0499FEF76FFC064636B96B488D
:10394000007801280CD1FEF777FA09E000F080FB3F
:1039500003900020614941F82400039800F07CFBAB
:103960003046C6E7FFE7039800F076FB2820C0E763
:103970002DE9F041054600275D48007810B1402050
:10398000BDE8F0813F2D01D13E20F9E700F060FB5A
:103990000746FF2D03D15248006890F832504F4837
:1039A00050F8254024B9384600F056FB4320E7E79D
:1039B000012C04D1384600F04FFB3D20E0E714F81D
:1039C000340F4849085C617888432178454A50544F
:1039D00014F834091146085C30B994F8361042489E
:1039E0000078884340490870E06918B12046E169D1
:1039F000FEF76AFB666A16B13046FEF76AFD0020E4
:103A0000E06284F8300084F831003A480078FF28FA
:103A100004D238480078401C36490870384600F017
:103A20001BFBFEF750FB00F013FB07463148007804
:103A300020B130480078401E2E490870204600F022
:103A400063FB2D480078401E2B4908700020234955
:103A500041F82500A06930B90020616988612749D3
:103A60006069086005E0D4E905014861D4E9051002
:103A700088612348006860612148046021A0E064F7
:103A8000384600F0E9FA19480078012801D1FEF71C
:103A9000D3F9002074E72DE9F041044600273F2CBC
:103AA00002D13E20BDE8F081FF2C0BD100F0D0FA0E
:103AB00007460B48006890F83760384600F0CCFAAB
:103AC0003046EFE700F0C4FA0746044850F82450A7
:103AD000D5B9384600F0C0FA4320E3E7941400203B
:103AE0005400002046000020450000204E00002029
:103AF00041000020420000204F0000206000002014
:103B0000580000203F000000012D04D1384600F08D
:103B1000A3FA3D20C6E73F2085F83700384600F07D
:103B20009BFA0020BEE72DE9F04706460F461446F3
:103B30004FF00008D548007820B1112020700020F7
:103B4000BDE8F08700F084FA8046FF2E03D1D0480C
:103B5000006890F83260CF4850F8265035B940469A
:103B600000F07AFA432020700020E9E7012D06D109
:103B7000404600F071FA432020700020E0E7E86C36
:103B800038603868FEF73EFB8146404600F064FA34
:103B9000002020704846D3E72DE9F04106460F4645
:103BA00014464FF00008B948007818B11220207070
:103BB000BDE8F08100F04CFA8046FF2E03D1B448F6
:103BC000006890F83260B34850F826502DB940464E
:103BD00000F042FA43202070EAE7012D05D140466B
:103BE00000F03AFA43202070E2E7EF64404600F02C
:103BF00033FA0020207000BFDAE770B505460026D2
:103C000000F026FA0646A34850F8254024B930466D
:103C100000F022FA462070BD012C04D1304600F09D
:103C20001BFA4320F7E794F8300000F0080060B377
:103C300014F8300F00F0F700207014F83009F8B9CC
:103C4000E06AC8B93434A0789349097808439249A6
:103C5000087020789149085C6178084314F8341999
:103C60008E4A5054304600F0F7F98D48007801280C
:103C700009D1FEF7E1F806E0304600F0EDF902E088
:103C8000304600F0E9F90020C5E7304600F0E4F9DD
:103C90004420C0E72DE9F04707460D464FF0000AE3
:103CA00000202860686000F0D3F98246FF2F03D11E
:103CB0007748006890F83270764850F827402CB961
:103CC000504600F0C9F94320BDE8F087012C04D12B
:103CD000504600F0C1F94320F6E7207C00F00100D7
:103CE00020B9504600F0B8F94520EDE70026D4F899
:103CF0000C90D4F80880504600F0AEF900E0761C35
:103D000058F8041B0029FAD02E60A9EB0600686061
:103D10000020D9E72DE9F04105464FF0000800F0FA
:103D200097F98046FF2D05D15948006890F8325028
:103D3000012608E05648006890F83200A84201D1F8
:103D4000012600E00026534850F825402CB9404693
:103D500000F082F94820BDE8F081012C04D14046F2
:103D600000F07AF94320F6E794F834704B48C05DD0
:103D700094F8351088434949C8550846C05D30B9A4
:103D800094F836104448007888434349087094F802
:103D9000300040F0080084F83000404600F05CF944
:103DA000012E01D1FEF748F80020D4E72DE9F041BB
:103DB00005460E46002700F04BF90746FF2D03D1BC
:103DC0003348006890F83250324850F825402CB9FA
:103DD000384600F041F92920BDE8F081012C04D1DA
:103DE000384600F039F94320F6E7542221463046A0
:103DF000FEF7FEF9384600F02FF90020ECE72DE938
:103E0000F04704460E4617464FF0000900F020F92F
:103E10008146FF2C02D11E48056802E01D4850F87B
:103E2000245005F1500050F82680484600F014F95F
:103E3000002038704046BDE8F0872DE9F047044681
:103E40000E46174698464FF0000900F001F98146EA
:103E5000FF2C02D10E48056802E00E4850F82450AD
:103E600005F1500040F82670484600F0F5F80020B3
:103E700088F80000BDE8F08710B50548006800F03C
:103E800040F9FF20FFF774FD10BD00004100002045
:103E9000540000209414002045000020460000201B
:103EA0004E00002070B5054600266248007800B13B
:103EB00070BD6148007800B1FAE71DB300F0C8F8A2
:103EC00006465E48006890F834405D48005D5B49F6
:103ED000096891F835108843594908550846005D2E
:103EE00040B95648006890F8361056480078884324
:103EF0005449087051480068C562304600F0ACF87B
:103F0000FDF79AFF00BFD3E72DE9F04105460E46C5
:103F100017461C464748007810B15520BDE8F0818F
:103F20004548007808B13220F8E742F2107060434B
:103F30004FF47A71B0FBF1F14FF461606843C6EB66
:103F4000061200EB8200384440F27122504301EB2C
:103F500000184046FFF7A6FF0020DFE770B50546D2
:103F600000263F2D01D32A2070BD00F071F80646CF
:103F7000354850F8254024B9304600F06DF843200C
:103F8000F2E7012C04D1304600F066F84320EBE75D
:103F9000E06A20B9304600F05FF85020E4E70020E6
:103FA000E06294F8300000F0370040B114F8300FB0
:103FB00020F03700207001206070303C02E00020CB
:103FC00084F8310094F8300000F00800A8B93434C7
:103FD000A0781C49097808431A49087020781849C4
:103FE000085C6178084314F83419154A5054304677
:103FF00000F032F8FDF720FF02E0304600F02CF828
:104000000020B1E770B5002500F022F805460F4802
:104010000468284600F020F8204670BD70B50446BC
:10402000002500F015F8054608480460284600F011
:1040300013F870BD41000020420000205400002011
:10404000460000204500002094140020700000204D
:10405000EFF3108072B6704780F3108870472048E5
:104060004FF0FF010170002080F309881D480121F5
:1040700001701D484FF08051016062B6FEE71A489A
:104080004FF080510160704717484FF08051016038
:10409000704772B6EFF3098040B1403880EC108A67
:1040A000203880E8F00F11490968086000B5104811
:1040B00080475DF804EB0F480F490A7802700B48FF
:1040C0000E490A680260106890E8F00F203090EC0A
:1040D000108A403080F309884EF0040E62B67047B3
:1040E00022ED00E04E00002004ED00E0540000202E
:1040F000F142000843000020440000205C00002042
:10410000704770477047704770477047704770B589
:10411000044610460026051F28462E60051F284627
:104120002E604FF01536051F28462E604FF01436CE
:10413000051F28462E604FF01336051F28462E60B7
:104140004FF01236051F28462E604FF01136051F1E
:1041500028462E604FF01036051F28462E604FF07F
:104160000936051F28462E604FF00836051F2846E1
:104170002E604FF00736051F28462E604FF006369A
:10418000051F28462E604FF00536051F28462E6075
:104190004FF00436051F28462E604FF00336051FEA
:1041A00028462E604FF00236051F28462E607610F6
:1041B000051F28462E600026051F28462E604FF05A
:1041C00080750560051F28462C60B61E051F284611
:1041D0002E604FF01236051F28462E604FF0033632
:1041E000051F28462E604FF00236051F28462E6018
:1041F0007610051F28462E60051F284629604FF0BF
:104200003136051F28462E604FF03036051F2846F0
:104210002E604FF02936051F28462E604FF02836B5
:10422000051F28462E604FF02736051F28462E60B2
:104230004FF02636051F28462E604FF02536051F05
:1042400028462E604FF02436051F28462E604FF07A
:104250002336051F28462E604FF02236051F2846BC
:104260002E604FF02136051F28462E604FF0203675
:10427000051F28462E604FF01936051F28462E6070
:104280004FF01836051F28462E604FF01736051FD1
:1042900028462E604FF01636051F28462E604FF038
:1042A0001136051F28462E604FF01036051F284690
:1042B0002E604FF00936051F28462E604FF0083655
:1042C000051F28462E604FF00736051F28462E6032
:1042D0004FF00636051F28462E604FF00536051FA5
:1042E00028462E604FF00436051F28462E6070BD0C
:1042F00070477047704710B51F480068401C1E4942
:104300000860FFF7A5FE04461C480078401C1B49C6
:1043100008702046FFF7A0FEFDF769FEFDF73BFDA4
:1043200010BD7FB56846FDF7DEF842F210720198C5
:10433000B0FBF2F1481EB0F1807F00D31BE0481EB5
:104340004FF0E022506150170F22002804DB1307C2
:104350001C0E0B4B1C5406E013071D0E094B00F0FE
:104360000F04241F1D5500BF00204FF0E022906174
:104370000720106100BF7FBD7400002041000020B5
:1043800000E400E018ED00E02DE9FE4F804681EAF0
:104390000300C00F0C46009021F0004123F00045BF
:1043A000B8EB0200A94105D24046214690461C4682
:1043B0000B46024623F00040104347D0270DC7F3B9
:1043C0000A00C3F30A510290401A019040286BDAA8
:1043D000C3F3130040F4801B0098924620B10023E1
:1043E000D2EB030A63EB0B0B01985946C0F1400274
:1043F000504600F09FF906460D4650465946019A30
:1044000000F0B7F910EB08006141002487EA11526F
:1044100084EAE7731A4340D0009A62B3019A012AF2
:104420004FEA075215DC001B61EB02014FF000421E
:1044300002EA0752CDE90042001C41F580113246E4
:104440002B4600F0EEF903B0BDE8F08F4046214660
:10445000F9E7001B61EB0201001C41F58013001815
:104460005B412018A2F5001747EB030140EAD57025
:10447000B6196D4111E06D084FEA360645EAC07580
:104480004FEA0752001B61EB0201001C41F580114D
:1044900049084FEA30000019514132462B4603B01B
:1044A000BDE8F04F00F0AEB90098012240000023B3
:1044B000D0EB020263EBE073009821464FEAE07410
:1044C000B8EB000061EB0401E9E783F000435BE730
:1044D00081F0004158E72DE9FE4F81EA030404F022
:1044E000004421F0004100944FF0000B23F0004302
:1044F00050EA01045ED052EA03045BD0C3F30A54CD
:10450000C1F30A552C44A4F2F3340194A0FB0254E5
:10451000C1F3130141F48011C3F3130343F4801377
:1045200001FB024400FB034E840A970A44EA8154CB
:1045300047EA8357A4FB076802958D0A05FB0785A8
:104540004FEA932C04FB0C542705029D4FEA0658B2
:1045500047EA1637B5EB08056EEB070C870E920E8F
:1045600047EA811742EA8312A7FB0201B6EB0B016F
:1045700064EB00042B0D43EA0C335E1844EB1C5033
:10458000DA465146E7FB0201C5F313044FEA0B3349
:1045900043EA14534FEA0432019C43EA0603A4F1B0
:1045A0000C040294009CCDE900B400F03AF903B089
:1045B000BDE8F08F00200146F9E72DE9F04D81EAD2
:1045C000030404F0004B21F0004514464FF0000AAC
:1045D00023F0004150EA050220D054EA01021DD028
:1045E000C5F30A570246C5F31303C1F31300C1F321
:1045F0000A5640F4801543F48013A7EB0608101BFD
:10460000D64608F2FD3873EB050002D308F1010825
:1046100001E092185B41B8F1000F03DA0020014677
:10462000BDE8F08D00204FF48011064684460EE070
:10463000171B73EB050705D3121B63EB050306433A
:104640004CEA010C49084FEA300092185B4150EAED
:104650000107EDD152EA030012D082EA040083EA96
:104660000501084305D0101BAB4106D201220023EF
:1046700006E000224FF0004302E06FF00102531009
:104680001AEB06004CEB085110EB0A0041EB0B0152
:10469000BDE8F04D00F0B6B870B5C1F30A5201F0B4
:1046A00000450024C1F3130140F2FF3341F48011AF
:1046B0009A4201DA002070BD40F233439A42A2F2DE
:1046C000334203DC524200F044F800E090402C43B7
:1046D000F1D0404270BD00F0004230F000400AD0FE
:1046E000C10D01F56071C0F3160042EA0151C20824
:1046F00040071143704700200146704701F0004316
:1047000030B421F0004150EA010206D00A0DA2F5B2
:104710006072C1F31301002A02DC30BC0020704734
:10472000440F44EAC104C100E01830BC00EBC250A1
:1047300000F031B8202A04DB203A00FA02F1002010
:1047400070479140C2F1200320FA03F319439040CF
:104750007047202A04DB203A21FA02F0002170473A
:1047600021FA02F3D040C2F12002914008431946D9
:104770007047202A06DBCB17203A41FA02F043EAC1
:10478000E07306E041FA02F3D040C2F1200291400A
:104790000843194670470029A8BF7047401C4900CC
:1047A00008BF20F00100704710B4B0FA80FC00FA96
:1047B0000CF050EA010404BF10BC704749B1CCF1C1
:1047C000200421FA04F411FA0CF118BF012121434D
:1047D0000843A3EB0C01CB1D4FEA00614FEA102008
:1047E00042BF002010BC704700EBC35010440029AA
:1047F000A4BF10BC7047401C490008BF20F0010056
:1048000010BC704710B5141E73F1000408DA401C88
:1048100041F1000192185B411A4301D120F00100DF
:1048200010BD2DE9F04D92469B4611B1B1FA81F2CF
:1048300002E0B0FA80F220329046FFF77BFF044698
:104840000F4640EA0A0041EA0B0153465A46084324
:1048500013D0114653EA010019D0C8F14002504666
:10486000FFF777FF05460E46504659464246FFF78A
:1048700061FF084305D0012004E020463946BDE829
:10488000F08D0020054346EAE0762C4337430A9832
:104890006305E40AA0EB08000022FD0A44EA47543D
:1048A0000A3002D500200146E9E7010510196941E7
:1048B000DDE9084500196941BDE8F04DA2E70000B7
:1048C000064C074D06E0E06840F0010394E807005D
:1048D00098471034AC42F6D3FBF75AFC144A000850
:1048E000344A000802E008C8121F08C1002AFAD1A1
:1048F00070477047002001E001C1121F002AFBD160
:10490000704777413B6B4D6E7E437F6F5F7C36799E
:104910003E1EFF0000000100020001000300010034
:104920000200010004000100020001000300010078
:104930000200010005000100020001000300010067
:104940000200010004000100020001000300010058
:104950000200010006000100020001000300010046
:104960000200010004000100020001000300010038
:104970000200010005000100020001000300010027
:104980000200010004000100020001000300010018
:104990000200010007000100020001000300010005
:1049A00002000100040001000200010003000100F8
:1049B00002000100050001000200010003000100E7
:1049C00002000100040001000200010003000100D8
:1049D00002000100060001000200010003000100C6
:1049E00002000100040001000200010003000100B8
:1049F00002000100050001000200010003000100A7
:104A00000200010004000100020001000300010097
:104A100002000100344A0008000000207800000075
:104A2000E4480008AC4A000878000020502E00003E
:104A3000F448000800000000000000000102030428
:104A40000102030406070809007A030A00000000B7
:104A5000000000000102030406070809000000002E
:104A60000000000000000000000000000000000046
:104A70000000000000000000000000000000000036
:104A80000000000000000000000000000000000026
:104A90000000000000000000000000000000000016
:0C4AA0000000000000000000000000000A
:040000050800018965
:00000001FF
