:020000040800F2
:10000000685900209D3F0008A53F0008A73F000851
:10001000A93F0008AB3F0008AD3F0008000000000A
:10002000000000000000000000000000AF3F0008DA
:10003000B13F00080000000093650008F767000862
:10004000B73F0008B73F0008B73F0008B73F0008B8
:10005000B73F0008B73F0008B73F0008B73F0008A8
:10006000B73F0008B73F0008B73F0008B73F000898
:10007000B73F0008B73F0008B73F0008B73F000888
:10008000B73F000805100008B73F0008B73F000859
:10009000B73F0008B73F0008B73F0008B73F000868
:1000A000B73F0008B73F0008B73F0008B73F000858
:1000B000B73F0008570E0008B73F0008B73F0008D9
:1000C000B73F0008B73F0008B73F0008B73F000838
:1000D000B73F0008B73F00082B100008B73F0008E3
:1000E000B73F0008B73F0008B73F0008B73F000818
:1000F000B73F0008B73F0008B73F0008B73F000808
:10010000B73F0008B73F0008B73F0008B73F0008F7
:10011000B73F0008B73F0008B73F0008B73F0008E7
:10012000B73F0008B73F0008B73F0008B73F0008D7
:10013000B73F0008B73F0008B73F0008B73F0008C7
:10014000A1030008B73F0008B73F0008B73F000809
:10015000B73F0008B73F00080D1B0008B73F000875
:10016000B73F0008B73F0008B73F0008B73F000897
:10017000B73F0008B73F0008B73F0008B73F000887
:10018000B73F0008B73F0008DFF80CD006F0BCFE10
:10019000004800478B1D00086859002030BF72B628
:1001A000704762B6704780F3088870471CB500201E
:1001B000009003460122110201900D4801F010FF4A
:1001C0001CBD70B5044600250EE04FF48070084950
:1001D0000883642000F0E4F94FF4807004494883F8
:1001E000642000F0DDF96D1CA542EEDB70BD00005F
:1001F0000000024000B589B0E248006840F000709D
:10020000E04908600020012103460222CDE90010E8
:100210004FF4C051DC4801F0E3FE09220B21DA481B
:1002200001F0BEFE09220C21D74801F0B9FE0020E2
:100230008DF81E008DF81F008DF820008DF821002C
:100240008DF822008DF823008DF81A008DF81B0020
:1002500008208DF81C0003208DF81D00ADF8180053
:1002600006A9CA4802F0DFF800208DF812008DF8C8
:10027000130001208DF814000820ADF808004FF499
:100280004050ADF80A0040F2FF70ADF80C004FF49A
:100290007840ADF80E0001208DF815000020ADF873
:1002A000100002A802F049F901208DF81200002088
:1002B0008DF8130001208DF814001020ADF808000F
:1002C00040F2FF70ADF80C0040F60800ADF80A00EF
:1002D0004FF47840ADF80E000020ADF8100001207A
:1002E0008DF8150002A802F028F902208DF81200FE
:1002F00000208DF8130001208DF814000820ADF8BF
:10030000080040F2FF70ADF80C000020ADF80A00C4
:100310004FF47840ADF80E000020ADF81000012039
:100320008DF8150002A802F008F903231422012118
:10033000084601F0A7FD01220221944802F0FCFBCF
:1003400009B000BD10B586B0044691480290002067
:100350008DF80D0004208DF80C00A07A8DF80E00A9
:10036000E07A4030C0B28DF80F00217B8DF810107C
:10037000617B8DF81110A17B8DF81210E17B8DF857
:100380001310217C8DF81410617C8DF81510A17C60
:100390008DF8161001A97D4802F0BEF906B010BD17
:1003A00030B58BB00221794802F02EFC00287DD0B8
:1003B0000221764802F0C3FC06AA0021734802F02D
:1003C000A0FA9DF82000042870D19DF82100002893
:1003D000FAD10798B0F5803F69D0B0F5833F04D0DB
:1003E0006C49084400287DD19BE006A8007B422888
:1003F00016D106A8407B422812D106A8807B472848
:100400000ED1012064490870487006A9C87B00EB32
:10041000D0714910604AD17006A8FFF793FF6BE0D6
:1004200006A8007B412817D106A8407B532813D18A
:1004300006A8807B4B280FD1012057490870022065
:10044000487006A9C87B00EBD0714910524A9170E0
:1004500006A8FFF777FF4FE006A8007B53280ED1D0
:1004600006A8407B53280AD106A8807B542806D1D1
:1004700000204949087006A8FFF764FF3CE006A881
:10048000007B462838D106A8407B4C2834D106A8EA
:10049000807B442830D14148008905B2B5F57A7F88
:1004A00002DBB5F5FA5F03DD522402E03CE024E014
:1004B00042243748029000208DF80D0004208DF86A
:1004C0000C0005208DF80E009DF823004030C0B2CE
:1004D0008DF80F0046218DF810104C218DF8111069
:1004E000442100E01EE08DF812108DF8134001A9A0
:1004F000264802F011F900BF15E006A8007B43284A
:100500000ED106A8407B57280AD106A8807B482830
:1005100006D106A8C07B552802D106A8FFF712FF16
:1005200001E000E000BF00BF0BB030BD30B585B0CA
:1005300004460D461648019000208DF8090004205D
:100540008DF8080006208DF80A0000208DF80B00B9
:1005500044218DF80C102089C1B28DF80D1020892E
:10056000010A8DF80E102889C1B28DF80F10288964
:10057000010A8DF810106946044802F0CDF805B064
:1005800030BD0000403802400000024000640040DE
:1005900001010600FFFEFDFF0000002028030020EF
:1005A00010B5002107E04AF2104200BF131EA2F16D
:1005B0000102FBD1491C8142F5D310BD10B50021C9
:1005C00006E0282200BF131EA2F10102FBD1491C44
:1005D0008142F6D310BD00BF011EA0F1010290B20E
:1005E000FAD1704700B5A9B09FEDFE0B8DED000B61
:1005F0009FEDFC0B8DED080B9FEDFA0B8DED100BB5
:100600009FEDF80B8DED180B9FEDF60B8DED200B8C
:100610009FEDF60B8DED020B9FEDF40B8DED0A0BAC
:100620009FEDF20B8DED120B9FEDF00B8DED1A0B84
:100630009FEDEE0B8DED220B9FEDEE0B8DED040B80
:100640009FEDEC0B8DED0C0B9FEDEA0B8DED140B7C
:100650009FEDE80B8DED1C0B9FEDE60B8DED240B54
:100660009FEDE40B8DED060B9FEDE20B8DED0E0B78
:100670009FEDE00B8DED160B9FEDDE0B8DED1E0B50
:100680009FEDDC0B8DED260B9FEDDA0BDB4880ED4B
:10069000040B9FEDDB0B80ED0A0B9FEDDB0B80ED78
:1006A000000B9FEDDB0B80ED020B9FEDD50B80ED7A
:1006B000120B9FEDD30B80ED160B20226946D64816
:1006C00006F0E2F89FEDCB0BD44880ED040B9FEDD4
:1006D000CC0B80ED0A0B9FEDCC0B80ED000B9FED5A
:1006E000CC0B80ED020B9FEDC60B80ED120B9FED46
:1006F000C40B80ED160B202208A9C94806F0C4F8E7
:1007000029B000BD70B52DED028B044600259FED8C
:10071000C50AB0EE408A9FEDC30AF0EE408A002081
:100720002EE0211D51F820100D44211D51F82010FC
:1007300000EE101AB8EEC00AB4EEE80AF1EE10FAB4
:1007400008DD211D51F8201000EE101AB8EEC00A85
:10075000F0EE408A211D51F8201000EE101AB8EE7C
:10076000C00AB4EEC80AF1EE10FA08D2211D51F801
:10077000201000EE101AB8EEC00AB0EE408A401CFD
:1007800021688142CDDC00EE105AB8EEC00A30EE8E
:10079000680A70EE480A2068801E00EE100AB8EE63
:1007A000C00A80EE801A11EE106A304606F041FA57
:1007B00041EC100BBDEC028B70BD10B52DED088B1C
:1007C0000446B0EE408AF0EE608A94ED042BB0EE61
:1007D000420AF0EE620A94ED122BB0EE421AF0EEED
:1007E000621A53EC102B51EC110B06F028F9C4E9F6
:1007F000060194ED002BB0EE420AF0EE620A94ED91
:100800000A2BB0EE421AF0EE621A53EC102B51ECA8
:10081000110B06F06DF8C4E90C0194ED022BB0EE5B
:10082000420AF0EE620A94ED0C2BB0EE421AF0EEA2
:10083000621A53EC102B51EC110B06F059F841ECF5
:10084000190B94ED0C1BB0EE410AF0EE610A53EC6B
:10085000192B51EC100B06F064F9C4E9100194ED6A
:10086000062BB0EE420AF0EE620A94ED162BB0EEC3
:10087000421AF0EE621A53EC102B51EC110B06F0F9
:10088000DEF841EC1B0B53EC182B06F0D5F841ECCD
:100890001A0B94ED101BB0EE410AF0EE610A53EC16
:1008A000102B06F0CCF841EC190B94ED061BB0EEC2
:1008B000410AF0EE610A53EC102B06F019F8C4E976
:1008C000080194ED101BB0EE410AF0EE610A53EC02
:1008D000102B9FED4B1B51EC110B06F0AAF841ECCD
:1008E000190B94ED0C1BB0EE410AF0EE610A53ECCB
:1008F000102B06F0A4F8C4E90E0194ED0E0B84ED64
:100900000A0B94ED080B84ED040B94ED080B84EDB9
:10091000180B94ED180BBDEC088B10BD10B52DED28
:10092000068B0446404884425AD14048FFF7EAFE0D
:10093000B0EE408AF0EE608A51EC180B06F08CF9AC
:1009400000EE100A3A4880ED000A90ED000A10EE21
:10095000101A084606F06DF941EC190BB0EE490A81
:10096000F0EE690A2548FFF728FFB0EE408AF0EE66
:10097000608A51EC180B06F06FF900EE100A2C4853
:1009800080ED010A90ED010A10EE101A084606F0FB
:1009900050F941EC1A0B204890ED001BB0EE410AD3
:1009A000F0EE610A53EC102B51EC1A0B06F047F8ED
:1009B00041EC190B184890ED021BB0EE410AF0EE25
:1009C000610A53EC102B51EC190B05F091FF41EC2F
:1009D000180B06F015F9164908810846008929E028
:1009E0002CE0000017D9CEF753E3CD3F0000000004
:1009F000006EA3C0000000000000000058020020AC
:100A0000000000000000F03F3BDF4F8D976E823FFB
:100A10000AD7A3703D0AC73F80000020C002002013
:100A2000A00000200000000000300140C0000020B5
:100A30002803002000B2BDEC068B10BD3048844274
:100A40005BD13048FFF75EFEB0EE408AF0EE608A80
:100A500051EC180B06F000F900EE100A2A4880ED60
:100A6000000A90ED000A10EE101A084606F0E1F8B0
:100A700041EC190BB0EE490AF0EE690A2348FFF782
:100A80009CFEB0EE408AF0EE608A51EC180B06F046
:100A9000E3F800EE100A1C4880ED010A90ED010A0F
:100AA00010EE101A084606F0C4F841EC1A0B18486C
:100AB00090ED001BB0EE410AF0EE610A53EC102BF2
:100AC00051EC1A0B05F0BBFF41EC190B104890EDEF
:100AD000021BB0EE410AF0EE610A53EC102B51EC10
:100AE000190B05F005FF41EC180B06F089F80649D3
:100AF00008810846008900B29DE74FF0FF309AE771
:100B0000003800408C01002034030020C002002087
:100B1000A00000201CB50020009003460122F02117
:100B20000190234801F05CFA40202149488380204D
:100B3000488320204883102048831CBD10B5102016
:100B40001B4948834FF4FA6005F02CFC202018491B
:100B500048834FF4FA6005F025FC4020144948838F
:100B60004FF4FA6005F01EFC8020114948834FF4D1
:100B7000FA6005F017FC10200D4908834FF4FA6065
:100B800005F010FC20200A4908834FF4FA6005F0B4
:100B900009FC4020064908834FF4FA6005F002FC86
:100BA0008020034908834FF4FA6005F0FBFB10BD79
:100BB0000000024010B5FFF715FD0021124880F833
:100BC000B21740F24C401149088000208870C8706C
:100BD000087100BF15E000210BE0002300EBC0020C
:100BE00002EB0014094A921D02EBC40222F81130F4
:100BF000491CC829F1DB0021054A11541E32115449
:100C0000401C1E28E7DB10BD4013002040030020DD
:100C1000B61A00201CB500247048006840F48050CB
:100C20006E4908600120022100230A46CDE9001028
:100C300018216B4801F0D4F900200221034601225B
:100C4000CDE900108903674801F0CAF905220321A4
:100C5000634801F0A5F905220421614801F0A0F9DB
:100C600005220F215F4801F09BF95C48203800689D
:100C700040F480505949203908600846006820F443
:100C80008050086044F4006444F4007444F48074B8
:100C900044F0040444F0280444F040045248048022
:100CA0001CBD1CB500244D48001F006840F4804066
:100CB0004A49091F08600120022100230A46CDE9A4
:100CC00000104FF4C041464801F08AF9002002218B
:100CD00003460122CDE90010C902414801F080F924
:100CE00005220C213E4801F05BF905220D213C480C
:100CF00001F056F905220E21394801F051F9374823
:100D00002438006840F4804034492439086008469B
:100D1000006820F48040086044F4006444F40074E7
:100D200044F4807444F0040444F0200444F040048B
:100D30002E4804801CBD024600BF108900F002004E
:100D40000028FAD0918100BF108900F0010000282E
:100D5000FAD09089704770B50026002400254FF422
:100D60000041204802F0FEFA4FF6FF711E48FFF7DF
:100D7000E2FF04464FF6FF711B48FFF7DCFF054614
:100D80004FF40041174802F0EBFAC4F30904AD1226
:100D900045EA8416304670BD70B500260024002553
:100DA0004FF480510E4802F0DDFA4FF6FF710F4804
:100DB000FFF7C1FF04464FF6FF710C48FFF7BBFF7A
:100DC00005464FF48051064802F0CAFAC4F30904FC
:100DD000AD1245EA8416304670BD0000443802402A
:100DE0000004024000000240003001400038004092
:100DF00010B54A48006840F002004849086040F2D7
:100E0000CF70474908604720091F088044482C38A4
:100E1000008840F4807042492C39088040481C38D2
:100E2000008820F001003E491C390880081F008816
:100E300040F00100091F088039482C38008840F034
:100E4000010037492C39088003231D22002101208D
:100E500001F018F810BD10B531481C38008800F0BA
:100E60000100002850D000202E4908602E4908605B
:100E7000002416E0FFF76FFF2A490A680968491C39
:100E8000284B1960191D41F82200FFF785FF2649FC
:100E90000A680968491C244B1960191D41F8220091
:100EA000641C322CE6DB214800792049C97888424D
:100EB00005DA1E480079401C1C49087124E01B48D3
:100EC00000791A49C97888421EDD18480078C0B1F7
:100ED00016484078012804D115491648FFF726FB2B
:100EE0000FE01248407802280BD1104881788078B2
:100EF000401E0E4A9070002903DD0D490D48FFF792
:100F000015FB01200949087105481C38008820F0AC
:100F1000010003491C39088010BD00004038024020
:100F20002C040040C00000208C01002000000020A4
:100F300034030020280300201CB5FE48006840F45C
:100F40000030FC490860FB481038006840F400108D
:100F5000F849103908600120022100230A46CDE932
:100F600000100C21F44801F03BF807220221F2485E
:100F700001F016F807220321EF4801F011F84FF4B1
:100F8000B670EE4908800C20091D0880EB4808382F
:100F9000008820F02000E94908390880E748001D52
:100FA000008840F02000E549091D0880032326221F
:100FB0000121002000F066FF4FF48070E04BDF4A13
:100FC000121F04210090DF4801F070F90122102166
:100FD000DC4802F070F8032311220121072000F001
:100FE00051FFD6480C30008840F08000D3490C31C6
:100FF0000880D248001D008840F40050CF49091DE8
:1010000008801CBD10B5D049CE4802F071F8012807
:101010000AD1CD49CB4802F03AF8CB49C94802F091
:1010200091F80020C949487010BD10B5002440F265
:101030002531C248083802F062FE58B1BF4808386E
:1010400002F09BFD0020C24908702021C14805F034
:1010500034FC8DE040F22551B848083802F04FFECC
:101060000028F6D02021B548083802F03FFE40F2B3
:101070002551B248083802F079FEB048083802F02D
:101080007CFDC4B2B248007800F0400008B3B0481C
:10109000007800F0800020BBFF2C06D1AC4800781F
:1010A00040F08000AA4908701BE0A948007800F0D1
:1010B0003F01A8484454A6480078401CA449087041
:1010C0000846007800F03F0004280ADD0020087080
:1010D00007E0EE2C05D19E48007840F040009C4986
:1010E00008709B48007800F08000002840D09A48A3
:1010F00090F84302022832D1974890F8450206281A
:101100002AD2DFE800F02903111D21259348018828
:101110009348008800F6B830814204DA8F4800888E
:1011200064308E49088018E08C4800888C49098812
:10113000884204DD894800886438884908800CE0CA
:1011400001208649887008E001208449087104E084
:1011500001208249C87000E000BF00BF00E000BF6E
:1011600000BF00207A49087020217A4805F0A5FBCD
:1011700010BD10B52DED028B00240120734948707D
:10118000EE222146641C6E484254B1222146641C62
:10119000425410222146641C425400222146641C01
:1011A00042542146641C42542146641C425401228C
:1011B0002146641C42542046611CCCB260490A544A
:1011C000FF222046611CCCB25D490A54FC22204615
:1011D000611CCCB25A490A54FF222046611CCCB291
:1011E00057490A542046611CCCB255490A54EE2294
:1011F0002046611CCCB252490A54B1222046611CDF
:10120000CCB24F490A5412222046611CCCB24C4940
:101210000A5400222046611CCCB249490A540122DA
:101220002046611CCCB246490A5400222046611C6B
:10123000CCB243490A5401222046611CCCB2404939
:101240000A5400222046611CCCB23D490A5445484C
:1012500090ED000A10EE101A084605F0EAFC41EC89
:10126000180B53EC182B40A1414805F05FFE404895
:1012700005F02EFBC2B22046611CCCB230490A54A4
:1012800008193B4905F02BFB394805F021FB2044A8
:10129000C4B200222046611CCCB229490A54022261
:1012A0002046611CCCB226490A5400222046611C0B
:1012B000CCB223490A542F4890ED000A10EE101AC0
:1012C000084605F0B6FC41EC180B53EC182B26A190
:1012D000274805F02BFE264805F0FAFAC2B2204650
:1012E000611CCCB216490A540819214905F0F7FAD5
:1012F0001F4805F0EDFA2044C4B200222046611CCC
:10130000CCB20F490A5403222046611CCCB20C49CE
:101310000A5400222046611CCCB209490A541148E3
:1013200090ED010A10EE101A084605F082FC41EC1F
:10133000180B21E040380240000002400844004001
:10134000341C0020A0600240008020200500002006
:1013500007000020341D0020F41A00204003002064
:10136000307800082803002025352E326600000062
:10137000941D00203403002053EC182BAFF2180109
:10138000FE4805F0D3FDFD4805F0A2FAC2B22046A2
:10139000611CCCB2FA490A540819F84905F09FFAC1
:1013A000F64805F095FA2044C4B200222046611C9C
:1013B000CCB2F3490A5404222046611CCCB2F04955
:1013C0000A5400222046611CCCB2ED490A54ED4873
:1013D00090ED010A10EE101A084605F02AFC41ECC7
:1013E000180B53EC182BAFF28001E44805F09EFD7A
:1013F000E24805F06DFAC2B22046611CCCB2E04969
:101400000A540819DD4905F06AFADC4805F060FA6B
:101410002044C4B200222046611CCCB2D8490A54F0
:1014200005222046611CCCB2D5490A540022204630
:10143000611CCCB2D2490A54D3480289D3A1CF4807
:1014400005F074FDCD4805F043FAC2B22046611C98
:10145000CCB2CB490A540819C84905F040FAC7482C
:1014600005F036FA2044C4B200222046611CCCB2FA
:10147000C3490A5406222046611CCCB2C0490A5412
:1014800000222146601CC4B2BD484254BD480289B6
:10149000BEA1BA4805F04AFDB84805F019FAC2B233
:1014A0002046611CCCB2B6490A540819B34905F06C
:1014B00016FAB24805F00CFA2044C4B200222046C5
:1014C000611CCCB2AE490A5407222046611CCCB242
:1014D000AB490A5400222046611CCCB2A8490A54E8
:1014E000AB4890ED001BB0EE410AF0EE610A53EC00
:1014F000102BA8A1A14805F019FDA04805F0E8F9B6
:10150000C2B22146601CC4B29D484254014608192B
:101510009A4905F0E4F9994805F0DAF92044C4B293
:1015200000222046611CCCB295490A54082220466C
:10153000611CCCB292490A5400222046611CCCB2F4
:101540008F490A54954890ED001BB0EE410AF0EE29
:10155000610A53EC102B8FA1884805F0E7FC8748FF
:1015600005F0B6F9C2B22046611CCCB284490A54D7
:101570000819824905F0B3F9804805F0A9F920441B
:10158000C4B200222046611CCCB27D490A54092213
:101590002046611CCCB27A490A5400222046611CC4
:1015A000CCB277490A547A4890ED021BB0EE410A5A
:1015B000F0EE610A53EC102B76A1704805F0B6FCF2
:1015C0006E4805F085F9C2B22046611CCCB26C4968
:1015D0000A540819694905F082F9684805F078F954
:1015E0002044C4B200222046611CCCB264490A5493
:1015F0000A222046611CCCB261490A5400222046CE
:10160000611CCCB25E490A54644890ED021BB0EEF6
:10161000410AF0EE610A53EC102B5EA1574805F029
:1016200085FC564805F054F9C2B22046611CCCB284
:1016300053490A540819514905F051F94F4805F02A
:1016400047F92044C4B200222046611CCCB24C4968
:101650000A540B222046611CCCB249490A5400228C
:101660002046611CCCB246490A54494890ED041BFF
:10167000B0EE410AF0EE610A53EC102B45A13F4851
:1016800005F054FC3D4805F023F9C2B22046611C28
:10169000CCB23B490A540819384905F020F93748BB
:1016A00005F016F92044C4B200222046611CCCB2D9
:1016B00033490A540C222046611CCCB230490A54EA
:1016C00000222046611CCCB22D490A54334890EDCB
:1016D000041BB0EE410AF0EE610A53EC102B2DA171
:1016E000264805F023FC254805F0F2F8C2B2204652
:1016F000611CCCB222490A540819204905F0EFF8C0
:101700001E4805F0E5F82044C4B200222046611CC2
:10171000CCB21B490A540D222046611CCCB2184998
:101720000A5400222146601CC4B21548425418488D
:1017300090ED061BB0EE410AF0EE610A53EC102B5F
:1017400014A10E4805F0F2FB0C4805F0C1F8C2B236
:101750002046611CCCB20A490A540819074905F011
:10176000BEF8064805F0B4F82044C4B20022204672
:10177000611CCCB202490A540E2211E0941D0020D3
:10178000341C00203403002028030020253464008A
:101790008000002025312E3466000000A0000020CB
:1017A0002046611CCCB2A6490A5400222046611C86
:1017B000CCB2A3490A54A34890ED061BB0EE410AEF
:1017C000F0EE610A53EC102BAFF238019E4805F0A1
:1017D000ADFB9D4805F07CF8C2B22046611CCCB23E
:1017E00097490A540819984905F079F8964805F080
:1017F0006FF82044C4B2FF222046611CCCB290494D
:101800000A54FC222046611CCCB28D490A54FF22A6
:101810002046611CCCB28A490A542046611CCCB2D5
:1018200087490A54EE222046611CCCB284490A54EE
:10183000B1222046611CCCB281490A5412222046B2
:10184000611CCCB27E490A5400222046611CCCB2F5
:101850007B490A5402222046611CCCB278490A54C2
:1018600000222046611CCCB275490A54062220464B
:10187000611CCCB272490A5400222046611CCCB2D1
:101880006F490A5471480288AFF200116E4805F0A2
:101890004DFB6D4805F01CF8C2B22046611CCCB26D
:1018A00067490A540819684905F019F8664805F0AF
:1018B0000FF82044C4B200222046611CCCB260491B
:1018C0000A5407222046611CCCB25D490A5400220A
:1018D0002046611CCCB25A490A545D480288AFF2D6
:1018E0005411594805F022FB574804F0F1FFC2B2E9
:1018F0002046611CCCB252490A540819524904F0DE
:10190000EEFF514804F0E4FF2044C4B20022204618
:10191000611CCCB24A490A540B222046611CCCB24D
:1019200047490A5400222046611CCCB244490A545B
:10193000484890ED010A10EE101A084605F079F9B2
:1019400041EC180B53EC182BAFF2E4513E4805F074
:10195000EDFA3D4804F0BCFFC2B22046611CCCB297
:1019600037490A540819384904F0B9FF364804F0D9
:10197000AFFF2044C4B200222046611CCCB23049E3
:101980000A5409222146601CC4B22D484254002248
:101990002146601CC4B22A48425401222046611CE0
:1019A000CCB227490A542A4840792B490A5C204680
:1019B000611CCCB222490A5400222046611CCCB2E0
:1019C0001F490A540A222046611CCCB21C490A5401
:1019D00000222046611CCCB219490A54012221463A
:1019E000601CC4B216484254194840791A491E3145
:1019F0000A5C2146601CC4B211484254FF222146B1
:101A0000601CC4B20E484254FC222146601CC4B281
:101A10000B484254FF222046611CCCB208490A54AC
:101A20002046611CCCB206490A5421460B4801F0FD
:101A3000D6FA0121094801F0B1FABDEC028B10BDC4
:101A4000341C0020A0000020941D002030780008E5
:101A50004003002028030020B61A0020A0600240A6
:101A60001CB54A48006840F01000484908604748E3
:101A70001438006840F4800044491439086001209B
:101A8000022100230A46CDE900104FF4C06140480E
:101A900000F0A6FA072209213D4800F081FA07224A
:101AA0000A213B4800F07CFA40F2D92039490881EC
:101AB0000C2088810846008820F02000088003233D
:101AC00025220121062000F0DDF94FF48070324B11
:101AD000304A121D04210090304800F0E7FB01223B
:101AE00010212E4801F0E7FA0323462200210720A7
:101AF00000F0C8F92748808A40F080002549888294
:101B00000846808940F4005088811CBD10B52449E6
:101B1000224801F0EDFA01280FD121491F4801F0B8
:101B2000B6FA1F491D4801F00DFB00201D49087041
:101B300001201D4949791D4A505410BD10B5044675
:101B40001848007850B901201649087021461348FA
:101B500001F045FA0121114801F020FA10BD70B5DD
:101B600004460D460F48007878B92A4621460A48AF
:101B700004F08AFE2946094801F031FA012107489C
:101B800001F00CFA01200749087070BD443802408A
:101B90000000024000100140F41A0020B864024026
:101BA000008000280500002040030020D41A0020F7
:101BB00000BFA0E09048008890490988401A40F68C
:101BC000B83190FBF1F201FB1200642190FBF1F0BF
:101BD000894948710846C078B8B3002020E086499A
:101BE000497901EBC10202EB01128349891D01EB26
:101BF000C20131F81010090A814B03F810107E4918
:101C0000497901EBC10202EB01127B49891D01EB0D
:101C1000C20131F81010CAB24100491C5A54401C8C
:101C20006428DCDB774890F8B20718B9C820FFF7C2
:101C300085FF07E0704840797349085C10B9C820F7
:101C4000FFF77CFF00206C49C8706B48007948B3EF
:101C500000246E48407820BB00201CE004EBC40147
:101C600001EB04126449891D01EBC20131F8101027
:101C7000090A634B03F8101004EBC40101EB0412D2
:101C80005D49891D01EBC20131F81010CAB2410053
:101C9000491C5A54401C6428E0DB641CC820FFF730
:101CA0004DFF00BF5448807808B3002014E0584925
:101CB00091ED010ABCEEC00A10EE101A8AB24E492C
:101CC000497901EBC10303EB01134B49891D01EB7A
:101CD000C30121F81020401C6428E8DB012046499C
:101CE0004979494A1E3A50540020434988704FF4BC
:101CF0007A7004F057FB5DE700BF05E0FFF739FAA3
:101D00004FF47A7004F04EFBF8E700BF00BF4FF4C9
:101D10007A7004F047FBFAE700BF00BF3D48FEF7CA
:101D2000FDFD3D48FEF7FAFDC82004F03BFBF5E75A
:101D300070B50446002500BF04F073FD04F008FCF4
:101D40000546002003F09DFD344908600A23344A0B
:101D50000021344803F0E0FF1423334A00213348C4
:101D600003F0DAFF1923324A0021324803F0D4FF8E
:101D70003723314A0021314803F0CEFF052004F01B
:101D800049FA284604F0E8FB70BD10B502F06CF883
:101D90004FF4806101F00702294B18684FF6FF03EA
:101DA0001840284B034343EA0220254B186000BF2C
:101DB0002548006840F0030023490860FEF7AAFEAA
:101DC000FEF7F4F9FEF7F6FEFEF724FFFEF769FFD3
:101DD000FEF710FAFFF744FEFFF7AEF8FFF708F83A
:101DE00002F026FA0523194A0021194803F094FF4E
:101DF00002F045FB002010BD4003002030780008B1
:101E0000F41A002040130020D41A002005000020FE
:101E10002803002000300140003800400800002066
:101E2000B4250020191D0008B42900200B1D00084E
:101E3000B4310020F91C0008B4390020B11B00089F
:101E40000CED00E00000FA0530380240B42100201B
:101E5000311D00084A0A52020243FE4B1A607047C5
:101E60000146072323EA01021202FA4B1B1D1868E0
:101E70004FF6FF031840F84B18431043F54B1B1D5A
:101E8000186070472DE9F0410746884614461D4604
:101E90002846FFF7E5FFC5F1040007FA00F60F201A
:101EA000284100EA0800064306F00F06E21704EB9B
:101EB000D2625211920002F1E022D2F800212146B2
:101EC000E31704EBD3635B11A4EB431C012303FA78
:101ED0000CF31A432046E31704EBD3635B119B001A
:101EE00003F1E023C3F80021DC48005D40EA06105E
:101EF000DA490855BDE8F081F0B503460846CD172C
:101F000001EB9575AD10A1EB8505AD062C0ED448FF
:101F1000006840F48040D24D2860CD1701EB9575E4
:101F2000AE10D04D55F826500F26A640B5430846B2
:101F3000CE1701EB9676B710CA4E46F82750CD174C
:101F400001EB9575AE10C74D55F8265003FA04F60F
:101F50003543CE1701EB9676B710C24E46F82750A0
:101F6000C148006801258D402843BF4D286002F01C
:101F7000010040B1BC480C30006801258D40284369
:101F8000B94D0C35286002F0020040B1B648083067
:101F9000006801258D402843B34D08352860F0BD09
:101FA00030B5CC1000F1200353F824304C07E50E77
:101FB0000F24AC40A343CD1000F1200444F8253099
:101FC000CC1000F1200353F824304C07E40E02FA41
:101FD00004F42343CD1000F1200444F8253030BD33
:101FE0002DE9F0470C46DDE90867002100258C4605
:101FF00000BF60E04FF0010808FA01F504EA050CA3
:10200000AC4557D1D0F800804FEA410A4FF00309A0
:1020100009FA0AF928EA0908C0F80080D0F8008017
:102020004FEA410902FA09F948EA0908C0F80080B4
:10203000012A01D0022A27D1D0F808804FEA410AAC
:102040004FF0030909FA0AF928EA0908C0F80880DC
:10205000D0F808804FEA410906FA09F948EA090868
:10206000C0F80880D0F804904FF0010808FA01F891
:1020700029EA0809C0F80490D0F8048003FA01F9AD
:1020800048EA0908C0F80480D0F80C804FEA410AF9
:102090004FF0030909FA0AF928EA0908C0F80C8088
:1020A000D0F80C804FEA410907FA09F948EA090813
:1020B000C0F80C80491C10299CD3BDE8F08710B5EE
:1020C00064480830006840F0040062490831086044
:1020D0006348001F006840F080506149091F086094
:1020E0006248406840F48070604948600846006873
:1020F00040F0040008600846006840F002000860F4
:10210000FEF74CF810BD5448001D5249091D0860E7
:102110007047F0B504460D4600210020504E443E65
:10212000366846F480364E4F443F3E6001E04E1C18
:10213000B1B24B4E443E366806F400361EB941F645
:10214000FF76B142F3DB41F6FF76B14201D10120C7
:1021500063E0434E361F366846F08056404F3F1FBF
:102160003E60424E366846F44046404F3E603C4E2C
:102170003C3E366846F41446394F3C3F3E60384E8C
:10218000443E366826F08076354F443F3E6045EA4F
:1021900084160127C7EB520746EA074646EA03665C
:1021A00046F480062E4F403F3E603E1F366846F0A4
:1021B00080763F1F3E6000BF294E443E366806F0E1
:1021C0000076002EF8D02A4E366846F48076284FE6
:1021D0003E603E46366846F400763E603E463668CF
:1021E00046F480663E603E46366846F005063E6030
:1021F0001B4E3C3E366826F00306194F3C3F3E60BE
:102200003E46366846F002063E6000BF144E3C3E35
:10221000366806F00C06082EF8D1F0BDF0B504467D
:102220000D4616461F460E484438006840F001002F
:102230000B4944390860002009493C3908600848C6
:10224000443800680B4908400549443908600A4889
:10225000091D13E008ED00E00000FA0500E400E0CD
:102260004438024008380140003C01400070004002
:10227000003C0240FFFFF6FE103000240860081FFB
:10228000006820F48020091F0860002006490860CB
:102290003B46324629462046FFF73BFF00210846D1
:1022A000FFF7D8FDF0BD00000C3802402DE9F041E9
:1022B0000C461546069E4C4FB84209D939464B4F3D
:1022C0003F6847F48007DFF824C1CCF8007008E0CD
:1022D0004749464F3F6847F40017DFF810C1CCF874
:1022E000007000BF076807F00107002FFAD1471AF6
:1022F000103F4FF0180CB7FBFCF7FAB2062A10DBC0
:10230000CF68A2F1060C0CEB4C0C4FEA4C0C0CF114
:10231000100C4FF03D0808FA0CF847EA0807CF60A8
:102320002FE0042A0EDBCF68A2F1040C0CEB4C0C5E
:102330004FEA4C084FF03D0C0CFA08FC47EA0C073A
:10234000CF601EE0022A10DB8F68A2F1020C0CEBBA
:102350004C0C4FEA4C0C0CF1100C4FF03D0808FAF5
:102360000CF847EA08078F600BE08F6802EB420C1D
:102370004FEA4C084FF03D0C0CFA08FC47EA0C07FA
:102380008F608560C360466000270760076847F07C
:10239000400707600768076007680760076847F439
:1023A000806707600768076007680760076847F489
:1023B000803707600768076007680760076847EAB3
:1023C00044670760BDE8F081026822F00102026004
:1023D00000BF026802F00102002AFAD141600268DF
:1023E00042F001020260704700640240303802404F
:1023F0000060024010B50446FE48844209D1012124
:10240000480601F012FA00214FF0007001F00DFAB9
:1024100008E00121880601F008FA00214FF08060F1
:1024200001F003FA10BD30B5024600200023146805
:1024300024F002041460146844F00104146000E005
:102440005B1C546804F001041CB94FF6FF74A342EE
:10245000F6D1546804F001040CB900206CE08C79CA
:10246000012C04D1146844F08004146003E0146863
:1024700024F080041460CC79012C04D1146844F059
:102480004004146003E0146824F0400414600C7AE3
:10249000012C04D1146844F02004146003E0146893
:1024A00024F0200414604C7A012C04D1146844F008
:1024B0001004146003E0146824F0100414608C7A93
:1024C000012C04D1146844F00804146003E014687B
:1024D00024F008041460CC7A012C04D1146844F070
:1024E0000404146003E0146824F0040414608C787D
:1024F000A407CD7844EA05640D7944EA05444D7992
:1025000044EA05540D886D1E2C43D461146824F0F0
:1025100001041460002300E05B1C546804F0010413
:102520001CB14FF6FF74A342F6D1546804F00104C5
:102530000CB1002000E0012030BD10B50021837AED
:10254000012202FA03F1AC4A126842F00102AA4BDE
:102550001A60A94A1C3212688A43A74B1C331A60BE
:10256000027BCAB9A44A0C3212688A43A24B0C33CC
:102570001A604288C38842EA03439F4A4032847A01
:1025800042F834300288838842EA03439A4A403250
:10259000847A02EBC4025360027B012A19D1964A65
:1025A0000C3212680A43944B0C331A604288038839
:1025B00042EA0343904A4032847A42F83430C28877
:1025C000838842EA03438C4A4032847A02EBC40295
:1025D0005360C27A3AB9884A121D12688A43864B00
:1025E0001B1D1A6006E0844A121D12680A43824BC2
:1025F0001B1D1A60028932B97F4A143212688A435D
:102600007D4B14331A600289012A06D17A4A1432AA
:1026100012680A43784B14331A60427B012A06D1B0
:10262000754A1C3212680A43734B1C331A60724A93
:10263000126822F00102704B1A6010BD00218171F6
:10264000C171017241728172C1728170C1700321C6
:1026500001710221417101210180704766490968B9
:1026600041F00101644A11601146096843F60E7297
:102670009143614A11601146096841EA00211160E5
:102680001146096821F001011160704721B102680B
:1026900042F48032026003E0026822F48032026079
:1026A0007047E1B1026842F0800202604FF4C272EA
:1026B000125842F480734FF4C27213504FF4CA722E
:1026C000125842F480734FF4CA7213504FF4D2720E
:1026D000125842F480734FF4D27213501BE0026818
:1026E00022F0800202604FF4C272125822F480730A
:1026F0004FF4C27213504FF4CA72125822F480730E
:102700004FF4CA7213504FF4D272125822F48073ED
:102710004FF4D2721350704710B5024600209368F0
:1027200003F08063B3F1806F00D110E0936803F091
:102730000063B3F1006F01D1012008E0936803F05A
:102740008053B3F1805F01D1022000E0042004280F
:1027500079D002F5C07303EB00131B6803F001048A
:1027600002F5C07303EB00131C600B7A7BB94B7A44
:102770000C8843EA445302F5C07404EB0014246847
:10278000234302F5C07404EB0014236010E00B7ABD
:102790004C6843EAC4034C7A234302F5C07404EB4B
:1027A00000142468234302F5C07404EB0014236072
:1027B0008B7A03F00F038B7202F5C07303EB0013E7
:1027C0005B6823F00F0402F5C07303EB00135C6039
:1027D00002F5C07303EB00135B688C7A234302F5A8
:1027E000C07404EB001463608B7B1C064B7B44EAD3
:1027F000034403E000640040006600400B7B44EAB1
:102800000323CC7A234302F5C07404EB0014A360C5
:102810008B7C1C064B7C44EA03440B7C44EA032378
:10282000CC7B234302F5C07404EB0014E36002F593
:10283000C07303EB00131B6843F0010402F5C0737F
:1028400003EB00131C6010BD10B50246002321B13C
:10285000012907D002290FD109E09068F94C00EA5C
:1028600004030BE09068F84C00EA040306E090686B
:10287000F64C00EA040301E0002300BF00BFF44C63
:10288000181BA34216D007DC83B16FF08060184498
:1028900070B1022818D111E0B0F5007F10D0ED4CD6
:1028A000204448B1B0F5003F0ED10BE002230DE00B
:1028B00000230BE0002309E0002307E0012305E0EB
:1028C000012303E0012301E0002300BF00BFD8B2D1
:1028D00010BD21B1012907D002290FD109E082687A
:1028E00042F0800282600AE0826842F40042826024
:1028F00005E0826842F40002826000E000BF00BF91
:10290000704710B500F5D87303EB01131B6803F093
:1029100004031372137A53B900F5D87303EB011350
:102920001B6840F2FF7404EA5353136009E000F59A
:10293000D87303EB01131B686FF0604404EAD30300
:10294000536000F5D87303EB01131B6803F0020317
:10295000537200F5D87303EB01135B6803F00F03A8
:10296000937200F5D87303EB01135B681B0AD374F1
:1029700000F5D87303EB01139B68D37200F5D8738D
:1029800003EB01139B681C0A147300F5D87303EB67
:1029900001139B681C0C547300F5D87303EB0113EF
:1029A0009B681B0E937300F5D87303EB0113DB6870
:1029B000D37300F5D87303EB0113DB681C0A14749E
:1029C00000F5D87303EB0113DB681C0C547400F59D
:1029D000D87303EB0113DB681B0E937421B9C36832
:1029E00043F02003C36003E0036943F02003036165
:1029F00010BD21B9C26842F02002C26003E0026942
:102A000042F02002026170470246002019B9D368E3
:102A100003F0030006E0012903D1136903F003006A
:102A200000E00020704710B502460B4600204FF62C
:102A3000FF71BBB9146824F0020444F0010414606F
:102A400000E0491E546804F00304012C01D0002961
:102A5000F7D1546804F00304012C01D0002032E0C7
:102A6000012030E0012B13D1146824F0030414601A
:102A700000E0491E546804F003040CB10029F8D1A9
:102A8000546804F003040CB100201CE001201AE09B
:102A9000022B17D1146824F0010444F002041460DE
:102AA00000E0491E546804F00304022C01D0002900
:102AB000F7D1546804F00304022C01D0002002E096
:102AC000012000E0002010BD014600200A6822F02D
:102AD000010242F002020A604A6802F00302022A7E
:102AE00000D10120704701464FF6FF7200200B68AD
:102AF00023F002030B6000E0521E4B6803F0020358
:102B0000022B01D1002AF7D14B6803F00203022BFC
:102B100000D001207047014600208A6902F0700051
:102B20007047014600208A69100E70470146002058
:102B30008A69C2F3074070471AB143690B43436186
:102B400002E043698B434361704710B502460020A1
:102B500001F4700343B19369C1F3130423400BB133
:102B600001202DE000202BE001F0807343B1536879
:102B7000C1F3130423400BB1012021E000201FE02A
:102B800001F0006343B19368C1F3130423400BB118
:102B9000012015E0002013E001F0007343B1D36879
:102BA000C1F3130423400BB1012009E0002007E02A
:102BB0001369C1F3130423400BB1012000E000208E
:102BC00010BD0022244B994202D10023836111E001
:102BD000C1F3130201F000730BB1C2600AE001F00F
:102BE00080630BB1026105E001F000630BB182600C
:102BF00000E0426070470246002002EA01030BB188
:102C0000012000E00020704770B504460D46002604
:102C100060692840002872D0B5F5807F69D01DDC3E
:102C2000082D42D006DC012D2DD0022D31D0042DEF
:102C30007FD134E0102D3ED0202D42D0402D78D1D0
:102C400045E000000300000400030008000003103A
:102C5000000100080001FFF77000F030B5F5004FEB
:102C600061D009DCB5F5007F4AD0B5F5806F4DD055
:102C7000B5F5006F5DD150E0B5F5803F2DD0B5F5CD
:102C8000003F56D12FE0A0685549FFF7B4FF064634
:102C900051E0E0680321FFF7AEFF06464BE0E06835
:102CA0000821FFF7A8FF064645E0E0681021FFF77E
:102CB000A2FF06463FE020690321FFF79CFF06467E
:102CC00039E020690821FFF796FF064633E02069C6
:102CD0001021FFF790FF06462DE060680821FFF7FE
:102CE0008AFF064627E060681021FFF784FF06464A
:102CF00021E0A0690121FFF77EFF06461BE01BE0F3
:102D0000A0690221FFF777FF064614E0A0690421BD
:102D1000FFF771FF06460EE00BE0A0697021FFF798
:102D20006AFF064607E060680421FFF764FF064675
:102D300001E0002600BF00E00026304670BDB1F57E
:102D4000007F3AD00FDC202928D006DC01291CD0D6
:102D500004291DD0082940D11DE0402921D0B1F51A
:102D6000807F3AD126E0B1F5004F31D006DCB1F5D5
:102D7000806F25D0B1F5006F2FD124E0B1F5803FF1
:102D800012D0B1F5003F28D111E0154A826025E04C
:102D90000822C26022E01022C2601FE00822026105
:102DA0001CE01022026119E00822426016E01022A5
:102DB000426013E00422426010E0042242600DE011
:102DC000042242600AE0002282610422426005E09F
:102DD000002282610422426000E000BF00BF704711
:102DE00001010100016821F0010101600021016081
:102DF00041608160C160016121214161DB498842FC
:102E000004D13D21D94A103A91608CE0D74918315C
:102E1000884205D14FF47461D44A103A916082E03F
:102E2000D2493031884205D14FF47411CF4A103A5B
:102E3000916078E0CD494831884205D14FF0746106
:102E4000CA4A103A91606EE0C8496031884204D1A4
:102E5000C749C64A103AD16065E0C4497831884212
:102E600004D1C449C14A103AD1605CE0BF499031F5
:102E7000884204D1C049BD4A103AD16053E0BB49F1
:102E8000A831884205D14FF03D51B84A103AD1607F
:102E900049E0BA49884204D13D21B84A083A116054
:102EA00041E0B6491831884205D14FF47461B34A04
:102EB000083A116037E0B1493031884205D14FF40A
:102EC0007411AE4A083A11602DE0AC49483188428D
:102ED00005D14FF07461A94A083A116023E0A7496F
:102EE0006031884204D1A249A44A121F11601AE03D
:102EF000A2497831884204D19E49A04A121F11602C
:102F000011E09E499031884204D19B499B4A121F8F
:102F1000116008E09949A831884204D14FF03D5131
:102F2000964A121F1160704710B500220268944B38
:102F30001A40CC680B6823434C6923438C692343B4
:102F4000CC6923430C6A23434C6A23438C6A234392
:102F50004C6B23438C6B23431A430260426922F07B
:102F60000702D1E90B3423431A4342610B694360E2
:102F70004B6883608B68C36010BD002101604160B5
:102F80008160C160016141618161C1610162416231
:102F90008162C162016341638163704721B102684C
:102FA00042F00102026003E0026822F001020260C6
:102FB000704721B1026842F40042026003E00268F7
:102FC00022F400420260704721B1026842F0200200
:102FD000026003E0026822F0200202607047416054
:102FE00070470146486880B2704722B1036843F4D5
:102FF0000023036003E0036823F4002303600161FE
:10300000704721B1026842F48022026003E0026846
:1030100022F48022026070470AB1016100E0C160C1
:103020007047014600200A6802F400220AB101201C
:1030300000E000207047014600200A6802F001020B
:103040000AB1012000E000207047014600204A69D3
:1030500002F03800704730B503460A4600200024CD
:10306000464DAB4202D24149103901E04349103983
:1030700002F000550DB14C6800E00C68414D2C4049
:1030800004EA02050DB1012000E0002030BD024637
:103090003A4B9A4202D23548103801E0374810388E
:1030A00001F000531BB1374B0B40C36002E0354BBE
:1030B0000B408360704710B501F080034BB122B123
:1030C000436943F08003436103E0436923F08003D5
:1030D000436180290BD02AB1036801F01E04234309
:1030E000036004E0036801F01E04A343036010BD05
:1030F00070B50246002000240025204EB24202D2C4
:103100001A4B103B01E01D4B103B1F4E0E4036B1D9
:103110001E2606EAD124166806EA040502E056696E
:1031200006F0800501F000560EB15C6800E01C68F6
:10313000144E344004EA010616B10DB1012000E03E
:10314000002070BD02460D4B9A4202D2074810384B
:1031500001E00A48103801F000531BB1094B0B4045
:10316000C36002E0074B0B40836070471060024071
:103170003D000020400F002000003D201064024070
:103180003F801CF07D0F7D0F3C0F3C0F10B50446B7
:103190008C48844208D10121084600F000FB002140
:1031A000012000F0FCFA5EE08748844208D101214A
:1031B000022000F0F4FA0021022000F0F0FA52E0C0
:1031C0008248844208D10121042000F0E8FA00215D
:1031D000042000F0E4FA46E07D48844208D1012151
:1031E000082000F0DCFA0021082000F0D8FA3AE0CC
:1031F0007848844208D10121102000F0D0FA002143
:10320000102000F0CCFA2EE07348844208D101214E
:10321000202000F0C4FA0021202000F0C0FA22E0B3
:103220006E48844208D10121402000F0B8FA002104
:10323000402000F0B4FA16E06948844208D1012128
:10324000802000F0ACFA0021802000F0A8FA0AE00B
:103250006448844207D10121801500F0A0FA0021C2
:10326000A01500F09CFA10BDF0B50A46002100231D
:10327000002400BF3DE0012505FA01F3156805EAC9
:1032800003049C4234D105684F000326BE40B54379
:10329000056015794E00B54006683543056015791F
:1032A000012D02D01579022D16D185684F00032615
:1032B000BE40B543856055794E00B54086683543BC
:1032C0008560456801268E40B5434560456896791E
:1032D0008E40B6B235434560C5684F000326BE40F8
:1032E000B543C560D5794E00B540C6683543C56065
:1032F000491C1029BFD3F0BD4FF6FF7101600021BA
:10330000017141718171C171704708B54FF480320C
:103310000092009A0A430092009AC261C161009A29
:10332000C261C2690092C269009208BD02460020D3
:1033300013690B400BB1012000E0002070470146EB
:10334000086980B270470246002053690B400BB1F8
:10335000012000E0002070470146486980B27047B4
:1033600001837047418370470AB1018300E04183C4
:1033700070474161704742694A4042617047F0B509
:10338000002300244D07ED0E02FA05F3CE1000F1E4
:10339000200555F826504E07F70E0F26BE40B543C0
:1033A000CF1000F1200646F82750CE1000F120057E
:1033B00055F8265045EA0304CE1000F1200545F8E3
:1033C0002640F0BD00000240000402400008024018
:1033D000000C02400010024000140240001802409D
:1033E000001C024000200240FA48006840F0010042
:1033F000F84908600020F74908310860F54800687E
:10340000F5490840F3490860F448091D0860081FA1
:10341000006820F48020091F08600020ED490C316D
:10342000086070470021EB4A921C11701146087029
:10343000704710B501460022002300204A11012ADE
:1034400002D1E44C236808E0022A03D1E14C703435
:10345000236802E0DF4C7434236801F01F0201246A
:1034600094401C400CB1012000E0002010BD38B594
:10347000002000900024002500BF3120FFF7D9FF75
:1034800005460098401C00900098B0F5A06F01D050
:10349000002DF2D03120FFF7CCFF08B1012400E06D
:1034A0000024204638BD01460020CA4A106820F09A
:1034B000F80040EAC10010607047C94908607047D1
:1034C0000021C44A703211701170012802D0042802
:1034D0000AD104E00121BF4A7032117005E00521D4
:1034E000BC4A7032117000E000BF00BF7047BD4998
:1034F0000860704770B5049C41EA82150126C6EB4E
:10350000530645EA0645054345EA0465B14E361DB6
:10351000356070BDB24908667047820142EA0172A7
:10352000AC4B84331A607047AD4988667047AC492C
:10353000C864704702460020A64B0833186820F084
:10354000EC6042EA01031843A24B0833186070474D
:10355000024600209F4B0833186820F0784042EA6A
:10356000010318439B4B0833186070470146002045
:10357000984A0832106820F0030008431060704732
:1035800094480830006800F00C00704701460020A5
:10359000904A0832106820F0F0000843106070472D
:1035A000014600208B4A0832106820F4E05008439E
:1035B0001060704701460020864A0832106820F4E7
:1035C000604040EAC10010607047F0B50021002261
:1035D00000240225002602237E4F08373F6807F0AB
:1035E0000C0121B1042905D0082937D105E07E4F0F
:1035F000076036E07D4F076033E0764F3F1D3F6840
:10360000C7F38056734F3F1D3F6807F03F036EB10D
:10361000764FB7FBF3F7DFF8BCC10CF1040CDCF814
:1036200000C0CCF3881C07FB0CF40CE06E4FB7FB1A
:10363000F3F7DFF8A0C10CF1040CDCF800C0CCF308
:10364000881C07FB0CF4634F3F1D3F68C7F301471D
:103650007F1C7D00B4FBF5F7076002E0624F076056
:1036600000BF00BF5B4F08373F6807F0F001090952
:103670005F4F7A5C0768D7404760564F08373F680E
:1036800007F4E051890A5A4F7A5C4768D74087604F
:10369000504F08373F6807F46041490B544F7A5C3C
:1036A0004768D740C760F0BD002100F44072B2F512
:1036B000407F0AD1474A0832116821F4F8114D4A77
:1036C00002401143434A08321160424A7032126884
:1036D000C0F30B031A433F4B70331A6070474149E4
:1036E0004439086070473F49403908607047424993
:1036F0000860704739B1374A303212680243354B9F
:1037000030331A6006E0334A303212688243314B5C
:1037100030331A60704739B12E4A3432126802438E
:103720002C4B34331A6006E02A4A34321268824342
:10373000284B34331A60704739B1264A3832126840
:103740000243244B38331A6006E0224A38321268AA
:103750008243204B38331A60704739B11D4A4032DA
:10376000126802431B4B40331A6006E0194A40328C
:1037700012688243174B40331A60704739B1154ABB
:10378000443212680243134B44331A6006E0114A74
:103790004432126882430F4B44331A60704739B188
:1037A0000C4A1032126802430A4B10331A6006E0CA
:1037B000084A103212688243064B10331A60704771
:1037C000E1B1044A143212680243024B14331A6006
:1037D00019E0000000380240FFFFF6FE1030002420
:1037E00000004742800E47420024F40040787D01EB
:1037F0000C000020FFFCFF0F5C0147425B4A12688F
:1038000082435A4B1A60704739B1584A121D1268E8
:103810000243564B1B1D1A6006E0544A121D1268E3
:103820008243524B1B1D1A60704739B14F4A0C320C
:10383000126802434D4B0C331A6006E04B4A0C32BF
:1038400012688243494B0C331A60704739B1474ABA
:10385000103212680243454B10331A6006E0434AA7
:10386000103212688243414B10331A60704739B1ED
:103870003E4A3C32126802433C4B3C331A6006E03D
:103880003A4A3C3212688243384B3C331A607047E4
:1038900039B1364A403212680243344B40331A6021
:1038A00006E0324A403212688243304B40331A609D
:1038B000704739B12D4A4432126802432B4B4433CE
:1038C0001A6006E0294A443212688243274B443387
:1038D0001A60704739B1254A4C3212680243234BB3
:1038E0004C331A6006E0214A4C32126882431F4B67
:1038F0004C331A60704739B11C4A50321268024387
:103900001A4B50331A6006E0184A5032126882434C
:10391000164B50331A60704739B1144AD21F1278CF
:103920000243124BDB1F1A7006E0104AD21F1278B6
:1039300082430E4BDB1F1A7070470C4860300068E2
:1039400040F08070094960310860704701460020EE
:10395000064A083A12680A400AB1012000E0002035
:1039600070470249891F08707047000014380240F0
:1039700010B50446F748844208D101211020FFF712
:1039800065FF00211020FFF761FF3EE0F24884420E
:1039900009D101214804FFF748FF00214FF400300E
:1039A000FFF743FF31E0ED48844209D1012188044B
:1039B000FFF73BFF00214FF48020FFF736FF24E0A4
:1039C000E748844209D10121C804FFF72EFF0021F6
:1039D0004FF40020FFF729FF17E0E248844209D1A5
:1039E00001210805FFF721FF00214FF48010FFF7A8
:1039F0001CFF0AE0DC48844207D101212020FFF7A8
:103A000025FF00212020FFF721FF10BD2DE9FF47F2
:103A100005460E460024A14600BFA046B08900B16D
:103A200000BF2C8A24F44054F08804432C82AC89D3
:103A300041F20C608443B08831890843718908439E
:103A40000443AC81AC8A24F44074B0890443AC8252
:103A50006846FFF7BAFDBF48854202D0C24885429A
:103A600002D1DDF80C9001E0DDF80890A88900F49F
:103A7000004040B109EBC90000EB09103168490072
:103A8000B0FBF1F707E009EBC90000EB0910316862
:103A90008900B0FBF1F76420B7FBF0F004012009C6
:103AA000642101FB1078A88900F4004040B1322065
:103AB00000EBC800B0FBF1F000F00700044308E0A1
:103AC000322000EB08106421B0FBF1F000F00F0091
:103AD00004432C81BDE8FF874FF41651016000219B
:103AE0008180C18001810C21418100218181704749
:103AF00010B502460020108A20F470600B884C88B4
:103B000023438C882343CC8823431843108210BD61
:103B10000021018041808180C180704721B182896C
:103B200042F40052828104E082894DF6FF731A400C
:103B300082817047028B02F47F420283028B0A4328
:103B40000283704721B1828942F40042828103E0FE
:103B50008289C2F30E028281704721B1828A42F4C7
:103B60000062828204E0828A4FF2FF731A408282EE
:103B70007047C1F308028280704701468888C0F30D
:103B800008007047028A4FF6F0731A400282028AD8
:103B90000A430282704721B1828942F00202828187
:103BA00004E082894FF6FD731A4082817047828952
:103BB0004FF2FF731A40828182890A4382817047E3
:103BC000028A4FF6DF731A400282028A0A43028297
:103BD000704721B1028A42F48042028204E0028AE4
:103BE0004BF6FF731A4002827047818941F0010150
:103BF0008181704721B1828A42F00802828204E00A
:103C0000828A4FF6F7731A4082827047028BD2B2D3
:103C10000283028B42EA01220283704721B1828A29
:103C200042F02002828204E0828A4FF6DF731A405B
:103C30008282704721B1828A42F01002828204E0BF
:103C4000828A4FF6EF731A4082827047828A4FF65B
:103C5000FB731A408282828A0A438282704721B1B2
:103C6000828A42F00202828204E0828A4FF6FD7369
:103C70001A40828270471AB1838A0B43838202E022
:103C8000838A8B4383827047F0B503460024002665
:103C90000025002040F66A17B94200D100BF18463F
:103CA000C1F3421401F01F06012707FA06F5012CA3
:103CB00001D10C3004E0022C01D1103000E01430AE
:103CC0001AB107682F43076002E00768AF43076037
:103CD000F0BD02460020B1F5007F00D100BF13887F
:103CE0000B400BB1012000E00020704701F400728E
:103CF000B2F5007F00D100BFCA430280704770B5A3
:103D00000246002400230025002040F66A16B14236
:103D100000D100BFC1F3421501F01F03012606FACE
:103D200003F3012D02D19689334006E0022D02D122
:103D3000168A334001E0968A33400C12012606FAB7
:103D400004F41688344013B10CB1012000E00020C7
:103D500070BD0000001001400044004000480040D9
:103D6000004C0040005000400014014010B50022FB
:103D7000002340F66A14A14200D100BF0A120124B8
:103D80009440A3B2DC43048010BD00000CB50020B9
:103D9000019000907648006840F4803074490860D3
:103DA00000BF7348006800F4003000900198401C88
:103DB0000190009818B90198B0F5A06FF1D16C4846
:103DC000006800F4003010B10120009001E00020F4
:103DD00000900098012846D165484030006840F0C6
:103DE00080506349403108606248006840F4804078
:103DF000604908605E48083000685D490831086025
:103E00000846006840F4004008600846006840F436
:103E1000A05008605848091F0860081F006840F05B
:103E20008070091F086000BF5148006800F00070F2
:103E30000028F9D040F20560504908604C4808302D
:103E4000006820F003004A4908310860084600680D
:103E500040F00200086000BF45480830006800F0EC
:103E60000C000828F8D10CBD10B54548006840F496
:103E70007000434908603E48006840F001003C493A
:103E8000086000203A4908310860394800683D4917
:103E90000840374908603C48091D0860081F006851
:103EA00020F48020091F0860002031490C3108608F
:103EB000FFF76CFF4FF0006031498039086010BD9A
:103EC00070B500200022022300240221284D08356D
:103ED0002D6805F00C0020B1042806D0082834D144
:103EE00007E02A4D2A4E356033E02A4D284E3560D2
:103EF0002FE01F4D2D1D2D68C5F380541C4D2D1D29
:103F00002D6805F03F0154B1224DB5FBF1F5184E77
:103F1000361D3668C6F3881605FB06F209E01B4D10
:103F2000B5FBF1F5124E361D3668C6F3881605FB53
:103F300006F20F4D2D1D2D68C5F301456D1C6B005C
:103F4000B2FBF3F5124E356003E0104D104E3560B4
:103F500000BF00BF064D08352D68C5F303150E4E92
:103F6000705D0B4D2D68C540094E356070BD000079
:103F7000003802400070004019544007003C0240E5
:103F800088ED00E0FFFFF6FE103000240024F4006E
:103F90001C00002040787D0120000020064880475A
:103FA00006480047FEE7FEE7FEE7FEE7FEE7FEE71E
:103FB000FEE7FEE7FEE7FEE7693E0008890100082C
:103FC0007CB5002514E06946284602F0E3F8064671
:103FD00066B9FD4850F8254044B1012C06D0D4E91B
:103FE000020100EB810060640198A064681CC5B206
:103FF0003F2DE8D97CBD00BF00BF03E04FF4FA605D
:1040000002F0D0F9F14800780028F7D0F0480068B5
:104010006421B0FBF1F0EE4908600846006828B959
:104020000020EC490870FF2002F0F4F802F090FA4A
:104030000446E748006864214843E7490860204691
:1040400002F08AFA00BF02F083FA0446E2480068F0
:10405000E24908600020E0490860204602F07CFA4E
:10406000DE480068DA490968B0FBF1F0C0F164008D
:10407000D849087002F0CAFAFFF7A2FF4FF47A702D
:1040800002F090F9DFE700B587B00320002180221D
:10409000D34BCDE90132CDE903104FF6FE703E233C
:1040A000D04A0090AFF2B10001F08DFE06AACEA179
:1040B0003E2001F0F1FF07B000BD002400BF00BFAB
:1040C00002F046FA0446C4480068401CC249086031
:1040D000204602F041FA02F098FAF1E700B587B005
:1040E000032000218022C44BCDE90132CDE9031029
:1040F0004FF6FF703F23C14A0090AFF2410001F03C
:1041000062FE06AABEA13F2001F0C6FF07B000BDB7
:1041100004E0002200F8012B4A1E91B20029F8D1D8
:10412000704770B54FF49671B948FFF7F1FF00235F
:104130000FE0581C85B203EB8300B54901EB800406
:1041400005EB850001EB8006002020706660581C9E
:1041500083B20E2BEDD303EB8300AD4901EB80045A
:104160000020207060600846AA49086070BD70B5E4
:1041700041F25841A848FFF7CBFF4FF480719248B5
:10418000FFF7C6FF002413E0601CC5B2C4EBC400F7
:1041900000EB4000A04901EB8003C5EBC50000EB3C
:1041A000400001EB80065E619CA0D864601CC4B234
:1041B0003D2CE9D3C4EBC40000EB4000964901EB71
:1041C00080030020586195A0D864002094490860BD
:1041D00091489449086070BD0021934A11700020F5
:1041E00004E00021914A1154411CC8B20828F8D3B8
:1041F00000218F4A11708F4A11708F4A11608F4AC7
:104200001160704700208E4908608E4908708E4901
:1042100008708E4908708E4908708E4908606E4992
:1042200008606E4908606A4908606849087070470C
:1042300010B502F0E5F9FFF7E5FFFFF7CDFFFFF757
:1042400096FFFFF76EFF00F0F3FE00F0E4FF01F0D1
:10425000DAFAFFF743FFFFF716FF02F0D3F910BDBC
:104260007B480078012808D176480078FF2804D2DE
:1042700074480078401C73490870704776496A4A50
:104280001278885C6949095C734A515C01EBC00192
:10429000684A1170704710B500246D4800780128F5
:1042A00030D102F055F904466648007820B16548DF
:1042B0000078401E6349087062480078F8B9624887
:1042C0000078E0B9FFF7DAFF3F485A49097850F81B
:1042D00021005949086057480078554909788842B3
:1042E0000DD055480068806B401C534909688863AD
:1042F00058480068401C5749086002F045F92046BC
:1043000002F02AF910BD10B50024514800780128A8
:1043100011D102F01DF904464A48007840B94A48D4
:104320000078FF2804D248480078401C46490870AD
:10433000204602F011F910BD10B5002402F008F972
:10434000044640480078F8B93F480078E0B9FFF7E4
:1043500095FF1D483749097850F821003649086013
:10436000344800783249097888420DD032480068D4
:10437000806B401C30490968886336480068401CDF
:104380003449086002F0FBF8204602F0E5F810BD61
:1043900010B500242E48007801286FD102F0D8F81B
:1043A00004462848007860B92748007850B126486C
:1043B0000078401E244908700846007818B9204645
:1043C0004CE058E053E04EE0343F0020480000202D
:1043D000400000203C000020580000204400002045
:1043E000343B0020303D002075432F4F532D494969
:1043F0002053746174000000343D0020303F0020E1
:1044000075432F4F532D49492049646C65000000C6
:10441000B839002034000020344000203F00000064
:1044200068000020600000204D0000204E000020A9
:104430004B0000204C000020640000205C000020A5
:1044400078000020490000204A000020570000208A
:1044500056000020300000203278000802F07CF87E
:10446000FFF76AFF0AE0204602F076F806E02046F1
:1044700002F072F802E0204602F06EF810BD10B5AE
:10448000EE48007890B9FFF7F9FEED480078ED4965
:104490000870ED48EA49097850F82100EB490860B6
:1044A00008460068EA49086002F059F810BD10B5E6
:1044B0000024022001F076FF02F04AF804460020B2
:1044C000E4490860204602F047F84FF47A7001F0A2
:1044D00069FF02F03DF80446DE480068DE490860E6
:1044E0000120DE490870204602F036F810BD70B594
:1044F000002602F07FF902F02BF80646D848006843
:10450000401CD7490860304602F026F8CB480078B6
:10451000012853D1D348007820B1012804D00228C3
:1045200009D103E001250BE0002509E00125012068
:10453000CC49087004E001250020CA49087000BF7A
:1045400000BF05B970BDC848046833E002F000F848
:104550000646E06A50B3E06A401EE062E06A28BBAB
:1045600094F8300000F0370040B114F8300F00F03C
:10457000C800207001206070303C02E0002084F808
:10458000310094F8300000F0080078B93434A07895
:10459000B64909780843B54908702078B449085CE1
:1045A0006178084314F83419B14A505464693046AC
:1045B00001F0D2FF94F832003F28C7D100BFC1E715
:1045C0004FF492707047704710B590F8342001F1A5
:1045D0000B039B5C90F83540A34301F10B04A354FB
:1045E00023469B5C23B98B7A90F83640A3438B72A9
:1045F00010BD2DE9F04F05460F4690469946A87A22
:104600009C490E5C05F10B00805D11F800B00BEBCE
:10461000C60000F0FF0A8C4850F82A4000202034E1
:10462000E0602760207C20EA0800207484F8119064
:10463000207C203C00F0080068B994F836008B49D3
:1046400009780843894908708948805D94F83510D5
:1046500008438749885529462046FFF7B5FF50464D
:10466000BDE8F08F10B57A4A1268D061784A1268B6
:1046700092F8343000F10B02D25C754B1B6893F852
:1046800035301A43724B1B6893F8344000F10B032A
:104690001A55827A6E4B1B6893F836301A43827231
:1046A0006B4A126892F83410714A525C684B1B686E
:1046B00093F835309A436E4B5A541A46525C42B9BD
:1046C000634A126892F83630684A12789A43674B08
:1046D0001A7010BD014600228A72002005E00023F6
:1046E00001F10B021354421CD0B20828F7D37047D3
:1046F00005E011F8013B00F8013B531E9AB2002A75
:10470000F7D170470146002002E0491C421CD0B29C
:104710000A78002AF9D170472DE9F84F05460F466F
:1047200090469946DDE90AAB0020009001F010FFA9
:10473000009051480468002C7BD0183454F8040CC5
:104740004D490860009801F007FF44F8187CA576F1
:10475000002020766076606144F814BC44F80CAC0C
:1047600044F8108C0C9824F8080C24F8069C0020BF
:10477000E077E810207705F00700E076217F012040
:104780008840A077E17E012088406077002060604B
:10479000E060A0602062A0626062E0622063AFF22D
:1047A00084306063183C002606E0002104F15000CC
:1047B00040F82610701CC6B2002EF6D0204602F03B
:1047C00018F801F0C5FE00901F4840F825400098F9
:1047D00001F0C2FE204601F016FF01F0B9FE009084
:1047E0002148006860610020A0611F48006810B186
:1047F0001D48006884611C4804603434A0781B495B
:10480000097808431949087020781949085C6178CB
:10481000084314F83419164A505418480078401CBC
:1048200016490870009801F097FE0020BDE8F88F47
:10483000FFE7009801F090FE4220F7E756000020C5
:104840004C0000204B000020343F0020640000207A
:104850005C0000205800002040000020480000209C
:10486000780000206C000020680000204D0000202F
:104870004E00002032780008600000205700002021
:104880002DE9F05F04460F4691461E464FF0000B9F
:104890002078052804D0012030700020BDE8F09F6A
:1048A00009F0800ABAF1000F04D029F080094FF016
:1048B000010801E04FF000080020307001F048FED0
:1048C0008346B9F1000F2CD0B9F1010F3BD0B9F1FB
:1048D000020F03D0B9F1030F46D111E0208900EA9D
:1048E0000705BD4206D1B8F1010F05D12089A843C3
:1048F000208101E070203070584601F02DFE3AE032
:10490000208900EA070535B1B8F1010F05D12089EA
:10491000A843208101E070203070584601F01CFE51
:1049200029E0208927EA0005BD4206D1B8F1010F30
:1049300005D120892843208101E07020307058463D
:1049400001F00AFE17E0208927EA000535B1B8F129
:10495000010F05D120892843208101E070203070AB
:10496000584601F0F9FD06E0584601F0F5FD002536
:104970006F20307000BF00BF28468FE72DE9F0415F
:1049800006460D460027FA48007820B1102028700E
:104990000020BDE8F08101F0DBFD0746F548046822
:1049A00084B100684068F3490860052020702681C2
:1049B00000206060F0A0E060384601F0CDFD0020EE
:1049C000287004E0384601F0C7FD722028702046A8
:1049D000DFE730B501464A6808682AB9CC686060EC
:1049E00028B10025456002E0106000B142608B688C
:1049F00000255D6230BDF0B506460F46B468002064
:104A0000283460602780207A00F0DF0020720020C8
:104A10006072207A283C88B93434A078D749097864
:104A20000843D64908702078D549085C6178084366
:104A300014F83419D24A5054012500E000253046BC
:104A4000FFF7C7FF2846F0BD2DE9F0470446894629
:104A500015464FF0000AC648007820B10F20287094
:104A60002046BDE8F0872078052803D00120287073
:104A70002046F6E701F06CFD8246606808B1012728
:104A800000E00027B9F1000F03D0B9F1010F3CD1CC
:104A900019E08FB9B8A0E06000202070B548006828
:104AA000606000202081B3480460504601F054FD4E
:104AB00000202870002605E0504601F04DFD4920F9
:104AC0002870264628E0D4F8048005E000214046FE
:104AD000FFF791FFD8F80080B8F1000FF6D1A6A03B
:104AE000E06000202070A348006860600020208102
:104AF000A0480460504601F02FFD012F01D1FFF7BF
:104B00001BFC00202870002606E0504601F024FD22
:104B100007202870264600BF00BF3046A1E72DE9D8
:104B2000F04105460E46144600279148007820B112
:104B3000112020700020BDE8F08101F009FD07463A
:104B40002878052806D0384601F006FD012020709F
:104B50000020F0E7E86830603068FFF7D3FD80465A
:104B6000384601F0F9FC002020704046E3E72DE9CB
:104B7000F04105460E46144600277D48007818B1DE
:104B800012202070BDE8F08101F0E2FC0746287891
:104B9000052805D0384601F0DFFC01202070F1E740
:104BA000EE60384601F0D8FC0020207000BFE9E735
:104BB000F0B51446059E734F3F6897F8307047F084
:104BC0002007DFF8C0C1DCF800C08CF83070002787
:104BD000DFF8B0C1DCF800C08CF83170694F3F6875
:104BE000FE62684F3F6879620C828B74654F3F6844
:104BF0008F6047680F6000274F60C860456805B147
:104C0000696041605F4F3F6897F834205C4FBF5C3C
:104C1000DFF870C1DCF800C09CF835C027EA0C074B
:104C2000DFF85CC10CF802706746BF5C5FB9554F96
:104C30003F6897F836C0514F3F7827EA0C07DFF8F6
:104C40003CC18CF80070F0BD2DE9F04F89B00546ED
:104C50000F4691469A46129E0020029044480078E2
:104C600028B102203070002009B0BDE8F08F46481E
:104C7000007818B10D2030700020F5E7287805285D
:104C800003D0012030700020EEE709F0800BBBF16B
:104C9000000F04D009F07F094FF0010801E04FF048
:104CA000000801F055FC0290B9F1000F4AD0B9F1AB
:104CB000010F78D0B9F1020F03D0B9F1030F71D110
:104CC00020E0288900EA0704BC420FD1B8F1010FA7
:104CD00002D12889A04328812A48006804850298C7
:104CE00001F03AFC002030702046BDE74B463A46C2
:104CF00004A92846CDF800A0FFF75AFF029801F05A
:104D00002BFC78E0288900EA07047CB1B8F1010F98
:104D100002D12889A04328811A4800680485029896
:104D200001F01AFC0020307020469DE74B463A46C1
:104D300004A92846CDF800A0FFF73AFF029801F039
:104D40000BFC58E0288927EA0004BC421ED1B8F1C8
:104D5000010F02D12889204328810A480068048570
:104D6000029801F0F9FB0020307020467CE71AE041
:104D700049000020380000203F0000004D000020C6
:104D80004E0000205C0000204A0000204B463A46BE
:104D900004A92846CDF800A0FFF70AFF029801F009
:104DA000DBFB28E01FE0288927EA00047CB1B8F18A
:104DB000010F02D1288920432881B1480068048569
:104DC000029801F0C9FB0020307020464CE74B46AA
:104DD0003A4604A92846CDF800A0FFF7E9FE02985C
:104DE00001F0BAFB07E0029801F0B6FB00246F2047
:104DF0003070204638E700BFFFF79EFA01F0A8FBAD
:104E000002909F48006890F8310020B39C480068E9
:104E100090F83100039000209949096881F8310029
:104E200004A8FFF7D6FD00209549096881F83000F5
:104E3000029801F091FB00240398012805D0022874
:104E400002D10E20307003E000BF0A20307000BF96
:104E500000BF204608E78A480068048DB8F1010FBA
:104E60001ED1B9F1000F0ED0B9F1010F0CD0B9F17C
:104E7000020F03D0B9F1030F0AD100E000BF288967
:104E8000A04328810BE000BF28892043288106E049
:104E9000029801F061FB6F2030700020E4E600BF53
:104EA000029801F059FB002030702046DCE670B516
:104EB000002501F04DFB054671480068048D284629
:104EC00001F04AFB204670BD2DE9FC5F044689468F
:104ED00092461E46002000902078052804D001202C
:104EE00030700020BDE8FC9F01F032FB0090BAF169
:104EF000000F03D0BAF1010F0AD104E0208920EAA3
:104F0000090020810BE0208940EA0900208106E0A9
:104F1000009801F021FB712030700020E2E700BF13
:104F20004FF0000B656855E0A87C40B3012838D0ED
:104F3000022802D0032844D111E02089298A00EAFE
:104F40000107288AB84209D139462846FFF753FDA0
:104F50008046B8F1010F01D14FF0010B38E02089F4
:104F6000298A00EA01074FB139462846FFF743FD79
:104F70008046B8F1010F01D14FF0010B28E0288ADB
:104F8000218920EA0107288AB84209D139462846F2
:104F9000FFF731FD8046B8F1010F01D14FF0010B51
:104FA00016E0288A218920EA01074FB139462846B0
:104FB000FFF721FD8046B8F1010F01D14FF0010B41
:104FC00006E0009801F0C8FA6F203070002089E7F1
:104FD00000BF2D68002DA7D1009801F0BDFABBF1EC
:104FE000010F01D1FFF7A8F901F0B2FA0090208972
:104FF0000190009801F0B0FA00203070019871E73C
:105000002DE9F04104460D4600272078052804D0FC
:10501000012028700020BDE8F08101F099FA0746D0
:105020002689384601F098FA002028703046F2E7C9
:105030002DE9F04150211348FFF76AF800250EE0F2
:10504000681C86B20F4800EB051400EB0617002021
:1050500020706760AFF2E020E060681C85B2042D2C
:10506000EED3084800EB0514002020706060AFF21A
:10507000F820E060034804490860BDE8F0810000C2
:105080005C000020E43A0020380000202DE9FC5F9D
:1050900005460F4691469A460020009001F058FAC6
:1050A00000906F480468006820B16D48006840684F
:1050B0006B490860009801F04FFA2CB95A208AF821
:1050C00000000020BDE8FC9FA8462E46781E0190F7
:1050D0004FF0000B05E04E44C8F80060B0460BF1FD
:1050E000010B01988345F6D30020C8F80000256025
:1050F00065602761E760C4F808908AF800002046E0
:10510000E0E72DE9F04104460D46002701F020FAC2
:105110000746206968B16668306860602069401E93
:105120002061384601F018FA002028703046BDE8AA
:10513000F081384601F010FA5D2028700020F6E773
:105140002DE9F04106460C461546002745480078F3
:1051500020B1112028700020BDE8F08101F0F8F99D
:105160000746706920602068FFF7CCFA8046384611
:1051700001F0F2F9002028704046EDE72DE9F041FA
:1051800005460E46144600273648007818B112200E
:105190002070BDE8F08101F0DBF907466E6138460A
:1051A00001F0DAF90020207000BFF2E770B5044684
:1051B0000D46002601F0CCF90646D4E903108842DA
:1051C00004D3304601F0C8F95E2070BD60682860E5
:1051D00065602069401C2061304601F0BDF9002067
:1051E000F3E770B505460C46002601F0B1F9064616
:1051F0002868206068686060A868A060E868E0606F
:1052000028692061304601F0A7F9D4E90301401A6A
:105210006061002070BD70B578211348FEF778FFFB
:1052200000240EE004EB44000F4901EBC005601CB4
:1052300000EB400001EBC00068600CA06861601CDE
:1052400084B2042CEED304EB4400074901EBC00503
:105250000020686005A0686108460149086070BDCB
:1052600070000020490000208C5400203F00000006
:105270002DE9F04106460D464FF00008307802282F
:1052800004D0012028700020BDE8F08101F060F911
:1052900080467468E08A78B12169081D20610F6832
:1052A000E08A401EE082A1682069884201D16068DE
:1052B00020610020287002E01F202870002740464F
:1052C00001F04AF93846DFE72DE9F04106460F467E
:1052D0004FF00008F748007810B10020BDE8F081D9
:1052E00001F036F98046F4480568006820B1F248BC
:1052F00000684068F0490860404601F02DF93DB370
:1053000001F026F98046ED480468C4B100680068E1
:10531000EA490860404601F01FF9666006EB870025
:10532000A060E6602661A7820020E082022028704B
:10533000002028816C602846FFF7CCF908E0DE48A1
:1053400000686860DC480560404601F005F900250A
:105350002846C3E72DE9F0470446894615464FF035
:10536000000A2078022804D0012028702046BDE8D9
:10537000F087D048007818B10F2028702046F6E753
:1053800001F0E6F88246A07A10B14FF0010801E082
:105390004FF00008B9F1000F03D0B9F1010F45D16A
:1053A0001FE0B8F1000F15D16668C448006830608E
:1053B000C248066000202070BF480068606000207E
:1053C0002081BD480460504601F0C6F800202870D6
:1053D000002705E0504601F0BFF849202870274615
:1053E0002BE005E00023042219462046FFF701F9CF
:1053F000A07A0028F6D16668B04800683060AF48EF
:10540000066000202070AC480068606000202081A9
:10541000A9480460504601F09FF8B8F1010F01D18E
:10542000FEF78AFF00202870002706E0504601F0B2
:1054300093F807202870274600BF00BF384696E73C
:1054400070B50546002601F083F806466C68606872
:10545000E060606820610020E082304601F07CF866
:10546000002070BD2DE9F0470746884615464FF0ED
:1054700000093878022804D0012028700020BDE8F7
:10548000F0878C48007818B1022028700020F6E7D9
:105490008B48007818B10D2028700020EFE701F04C
:1054A00057F881467C68E08A98B12169081D20611F
:1054B0000E68E08A401EE082A1682069884201D11E
:1054C00060682061484601F047F8002028703046A7
:1054D000D5E77C48006890F8300040F00400794936
:1054E000096881F8300000207649096881F83100A8
:1054F00074480068C0F82C803846FFF7B3F8484677
:1055000001F02AF8FEF718FF01F022F881466D48F5
:10551000006890F8310020B101280DD002280AD18E
:1055200005E068480068066A002028700DE0002643
:105530000E20287009E000BF394662480068FFF776
:1055400043F800260A20287000BF00BF00205D49F4
:10555000096881F830005B49096881F831005949D0
:105560000968C861574909680862484600F0F4FFB5
:10557000304684E72DE9F04104460F4615464FF0CA
:1055800000082078022804D0012028700020BDE8FF
:10559000F08100F0DDFF8046A07A20B300267FB1C5
:1055A000012F0CD107E00223042200212046FFF73F
:1055B00020F8701CC6B2A07A0028F4D109E000BF20
:1055C0000223042200212046FFF713F8701CC6B204
:1055D00000BF00BF404600F0BFFFFEF7ADFE0E204B
:1055E00028703046D3E7404600F0B6FF0020287010
:1055F00000BFCCE72DE9F04105460E46002728788C
:10560000022802D00120BDE8F08100F0A1FF07468A
:10561000A87A60B10023042231462846FEF7E9FF4C
:10562000384600F099FFFEF787FE0020EBE76C6834
:10563000E08AA18A884204DB384600F08DFF1E20F4
:10564000E1E7E168081DE0600E60E08A401CE0824E
:10565000D4E90210884201D16068E060384600F069
:105660007BFF0020CFE72DE9F04105460E460027DD
:105670002878022802D00120BDE8F08100F068FF00
:105680000746A87A60B10023042231462846FEF777
:10569000B0FF384600F060FFFEF74EFE0020EBE75B
:1056A0006C68E08AA18A88420EDB384600F054FF1D
:1056B0001E20E1E749000020340000207400002093
:1056C0004A0000205C00002061682069884201D106
:1056D000A06820612069001F206120690660E08ABF
:1056E000401CE082384600F037FF0020C4E72DE977
:1056F000F04105460F4616464FF00008287802286C
:1057000002D00120BDE8F08100F022FF8046A87A97
:10571000E8B106F0010050B105E00023042239464B
:105720002846FEF766FFA87A0028F6D105E0002398
:10573000042239462846FEF75CFF404600F00CFF85
:1057400006F0040008B9FEF7F7FD0020DAE76C6800
:10575000E08AA18A884204DB404600F0FDFE1E205C
:10576000D0E706F0020058B161682069884201D193
:10577000A06820612069001F20612069076009E09E
:10578000E168081DE0600F60D4E90210884201D191
:105790006068E060E08A401CE082404600F0DCFE89
:1057A0000020AFE72DE9F04705460C464FF0000A10
:1057B0002878022802D00120BDE8F08700F0C8FE5A
:1057C0008246A87A207405F10B0804F10809002725
:1057D00005E018F8010B09F8010B781CC7B2082F77
:1057E000F7D36E68F08A18B130690068206001E074
:1057F00000202060F08AA080B08AE080504600F04F
:10580000ABFE0020D8E72DE9F04160211048FEF7FB
:105810007FFC00240DE0601C86B204EB44000C49C0
:1058200001EBC00506EB460001EBC0072F60601CD2
:1058300084B2032CEFD304EB4400054901EBC0050F
:1058400000202860084603490860BDE8F081000098
:10585000045500207400002070B50446002620780E
:10586000032801D0002070BD00F072FE0646258995
:1058700015B12089401E2081304600F06DFE28467B
:10588000F1E770B505460026D248007808B100203F
:1058900070BD00F05DFE0646CF480468006820B188
:1058A000CD4800684068CC490860304600F054FE9E
:1058B0003CB1032020702581002060602046FEF767
:1058C00009FF2046E4E72DE9F047044688461546DF
:1058D0004FF000092078032804D0012028702046CA
:1058E000BDE8F087BB48007818B10F20287020462B
:1058F000F6E700F02DFE8146A07A08B1012700E00E
:105900000027B8F1000F03D0B8F1010F35D117E02F
:105910007FB900202070B0480068606000202081BE
:10592000AD480460484600F017FE002028700026AD
:1059300005E0484600F010FE49202870264623E086
:1059400005E00023012219462046FEF752FEA07A08
:105950000028F6D12070A0480068606000202081F7
:105960009D480460484600F0F7FD012F01D1FEF785
:10597000E3FC00202870002606E0484600F0ECFD1D
:1059800007202870264600BF00BF3046A8E72DE953
:10599000F04105460E46144600272878032803D018
:1059A00001202070BDE8F0818A48007810B1022003
:1059B0002070F7E78948007810B10D202070F1E7DA
:1059C00000F0C6FD0746288940B12889401E28817D
:1059D000384600F0C1FD00202070E3E780480068F1
:1059E00090F8300040F001007D49096881F83000EE
:1059F00000207B49096881F8310079480068C66257
:105A00002846FEF72FFE384600F0A6FDFEF794FC70
:105A100000F09EFD07467248006890F8310020B102
:105A2000012809D0022806D102E0002020700BE0F6
:105A30000E20207008E000BF294669480068FEF784
:105A4000C3FD0A20207000BF00BF00206449096820
:105A500081F830006249096881F8310060490968BD
:105A6000C861384600F078FD00BF9BE72DE9F041A2
:105A700004460F4615464FF000082078032804D04E
:105A8000012028700020BDE8F08100F061FD804613
:105A9000A07A20B300267FB1012F0CD107E00223AA
:105AA000012200212046FEF7A4FD701CC6B2A07A98
:105AB0000028F4D109E000BF022301220021204682
:105AC000FEF797FD701CC6B200BF00BF404600F055
:105AD00043FDFEF731FC0E2028703046D3E74046E8
